:02000004085F93
:10C0000000C05F08FCFF5F0800000600200005017B
:08C010000401A2180000000069
:10C018001348144908B5884205D0134A824202D011
:10C02800124B121A98471248124A0021124B121A40
:10C03800984712481249884205D0124A824202D0D3
:10C048000A4B121A984710481049884205D0104ADE
:10C05800824202D0054B121A9847014808BD00BF1A
:10C0680014AE071038F65F0888AE07102D0D1110B2
:10C0780088AE0710FCAF0710A10E111068CA3F0266
:10C08800A8C05F0870CA3F0270CA3F02B0C05F080C
:0CC09800F8FF3F0219C05F080000000024
:08C0A8009CC05F08C0FA3F02D2
:10C0B00010F8012B11F8013B012A28BF9A42F7D052
:10C0C000D01A7047034613F8012B002AFBD1181A27
:10C0D0000138704770B502F091F80025054E064C06
:10C0E000A41BA408AC4200D170BD56F8043B98478D
:10C0F0000135F7E7CCFF3F02F8FF3F0200F07AB8C6
:10C1000008B500F0A7F8BDE8084002F02FB800F02D
:10C1100065BD00F063BD00F06FBD0000744600B562
:10C120008DB02C22002101A802F0DFFE054B049403
:10C130000193054B02937B46002101A8039300F075
:10C1400027FCFEE72C000C00D0FA3F027047704736
:10C1500010B50446094B036001F074F9214601F063
:10C16000BDFB02F057F902F049F92046044B40F8B4
:10C17000043B01F03DFA204610BD00BF8CFB3F029E
:10C1800074FB3F0210B50446FFF7E2FF204624216E
:10C19000FFF7C1FF204610BD08B5114B1B6853B90E
:10C1A0005A21104800F019FE02F034F90E49BDE89A
:10C1B000084000F096BF012B07D1B421094800F0D8
:10C1C0000CFE02F027F90949F1E7022B07D1002103
:10C1D000044800F002FE02F01DF90549E7E708BD3A
:10C1E000C0AE0710C4AE0710E5FA3F02F2FA3F02F4
:10C1F00001FB3F0207B502F00DF94FF4165102F0B2
:10C20000F9F80321022002F013FD0023B4220121DA
:10C21000CDE900320C484FF416634FF4087200F079
:10C2200019FE4FF47A7001F069FFFFF7B5FF02F0D5
:10C23000F1F8064900F055FF02F0ECF8044903B0AC
:10C240005DF804EB00F04DBFC4AE071011FB3F02D8
:10C250001EFB3F022DE9F843022002F0FAFC002801
:10C2600014BF4FF001084FF000081B4E2ED0347859
:10C2700064BB00F079F9194F3B68C01AFA2825D938
:10C28000DFF86090D9F800300133022BD8BF1C468C
:10C29000C9F8004002F0BEF8114900F00FFF02F0AB
:10C2A000B9F8D9F800400546002C13DA2D2100F02A
:10C2B00009FF61420A22284600F01DFF284600F0CF
:10C2C00004FFFFF769FF00F04FF9386086F800803F
:10C2D000BDE8F8832146EDE794AE071098AE07104D
:10C2E0004CFB3F02C0AE071070B51426D0E90053D6
:10C2F000044606FB0356AE4204D0284600F0E8FD93
:10C300001435F8E7206800F077FC204670BD8842BD
:10C31000F8B504460D46164616D9904215D2A2F13C
:10C320001406751AA1F114072C44B7421CD02CB185
:10C330003146204600F035FE337C2374304600F051
:10C34000C7FD143E143CF0E70ED0B5420CD02CB122
:10C350002946204600F025FE2B7C2374284600F059
:10C36000B7FD14351434F0E7F8BD00232DE9F04192
:10C37000C0E9003383604F6804469F420E4624DDC7
:10C380004FF0140808FB07F000F028FC0546E0B168
:10C39000D4E9001208FB0212FFF7B9FF206800F091
:10C3A0002BFC2560A760D6E9007308FB0378B8452D
:10C3B00009D03946284600F00EFE3B7C143505F8BE
:10C3C000043C1437F3E7736863602046BDE8F081EE
:10C3D00070B50024254B264A8CB09A60C3E900440E
:10C3E000012000F0E3FA2146012000F0FBFACDE93C
:10C3F0000044029402F00EF81E4C0546264669469B
:10C4000003A8FFF7B2FF03A906A8FFF7AEFF1A4B78
:10C4100006A946F8043B09A8FFF7A7FF09AA1E21B1
:10C42000304601F03DFB09A8FFF75EFF06A8FFF7C5
:10C430005BFF124B2562236003A8FFF755FF104BEB
:10C44000236001F0E7FF4FF4165101F0D3FF00F035
:10C45000F9FF214601F0FCF96846FFF745FF09485E
:10C460000CB0BDE8704000F0E1BC00BF88AE071022
:10C470000000FFFF9CAE071074FB3F0278FC3F02F8
:10C480008CFB3F02C4AE071009B504480068044B9A
:10C4900003441B689B68029309BD000014AE07109B
:10C4A0005000000009B504480068044B03441B68B1
:10C4B0005B69029309BD000014AE07105000000034
:10C4C00009B504480068044B03441B685B68029389
:10C4D00009BD000014AE07101400000009B504489F
:10C4E0000068044B03441B689B68029309BD00006D
:10C4F00014AE07101400000009B504480068044B8E
:10C5000003441B68DB68029309BD000014AE0710EA
:10C510001400000009B504480068044B03441B687C
:10C520005B69029309BD000014AE071014000000FF
:10C5300009B504480068044B03441B689B690293D7
:10C5400009BD000014AE07105400000009B50448EE
:10C550000068044B03441B685B68029309BD00003C
:10C5600014AE07100000000009B504480068044B31
:10C5700003441B685B69029309BD000014AE0710F9
:10C580000000000009B504480068044B03441B6820
:10C590005B6C029309BD000014AE07103000000070
:10C5A00009B504480068044B03441B689B6C029364
:10C5B00009BD000014AE07103000000009B50448A2
:10C5C0000068044B03441B68DB6C029309BD000048
:10C5D00014AE07103000000009B504480068044B91
:10C5E00003441B685B6D029309BD000014AE071085
:10C5F0003000000009B504480068044B03441B6880
:10C600005B69029309BD000014AE07104C000000E6
:10C6100009B504480068044B03441B689B680293F7
:10C6200009BD000014AE07102400000009B504483D
:10C630000068044B03441B68DB68029309BD0000DB
:10C6400014AE07102400000009B504480068044B2C
:10C6500003441B681B69029309BD000014AE071058
:10C660002400000009B504480068044B03441B681B
:10C670005B69029309BD000014AE0710240000009E
:10C6800009B504480068044B03441B689B69029386
:10C6900009BD000014AE07102400000009B50448CD
:10C6A0000068044B03441B68DB69029309BD00006A
:10C6B00014AE07102400000009B504480068044BBC
:10C6C00003441B681B6A029309BD000014AE0710E7
:10C6D0002400000009B504480068044B03441B68AB
:10C6E0009B6A029309BD000014AE071024000000ED
:10C6F00009B504480068044B03441B68DB6A0293D5
:10C7000009BD000014AE07102400000009B504485C
:10C710000068044B03441B681B6C029309BD0000B6
:10C7200014AE07102400000009B504480068044B4B
:10C7300003441B681B6A029309BD000014AE071076
:10C740001000000009B504480068044B03441B684E
:10C750005B6A029309BD000014AE071010000000D0
:10C7600009B504480068044B03441B689B6A0293A4
:10C7700009BD000014AE07101000000009B5044800
:10C780000068044B03441B68DB6A029309BD000088
:10C7900014AE07101000000009B504480068044BEF
:10C7A00003441B681B6B029309BD000014AE071005
:10C7B0001000000009B504480068044B03441B68DE
:10C7C0005B6B029309BD000014AE0710100000005F
:10C7D00009B504480068044B03441B681B6C0293B2
:10C7E00009BD000014AE07101000000009B5044890
:10C7F0000068044B03441B68DB69029309BD000019
:10C8000014AE07101800000009B504480068044B76
:10C8100003441B681B6A029309BD000014AE071095
:10C820001800000009B504480068044B03441B6865
:10C830001B69029309BD000014AE07100C00000034
:10C8400009B504480068044B03441B685B69029304
:10C8500009BD000014AE07100C00000009B5044823
:10C860000068044B03441B689B69029309BD0000E8
:10C8700014AE07100C00000009B504480068044B12
:10C8800003441B681B68029309BD000014AE071027
:10C890003400000009B504480068044B03441B68D9
:10C8A0005B68029309BD000014AE0710340000005D
:10C8B00009B504480068044B03441B689B68029355
:10C8C00009BD000014AE07103400000009B504488B
:10C8D0000068044B03441B681B69029309BD0000F8
:10C8E00014AE07103400000009B504480068044B7A
:10C8F00003441B685B69029309BD000014AE071076
:10C900003400000009B504480068044B03441B6868
:10C910009B69029309BD000014AE071034000000AB
:10C9200009B504480068044B03441B68DB690293A3
:10C9300009BD000014AE07103400000009B504481A
:10C940000068044B03441B681B6A029309BD000086
:10C9500014AE07103400000009B504480068044B09
:10C9600003441B68DB6E029309BD000014AE071080
:10C970004800000009B504480068044B03441B68E4
:10C980001B6F029309BD000014AE071048000000A1
:10C9900009B504480068044B03441B68D3F8D4303D
:10C9A000029309BD14AE07104800000009B5044801
:10C9B0000068044B03441B685B68029309BD0000D8
:10C9C00014AE07100800000009B504480068044BC5
:10C9D00003441B685B69029309BD000014AE071095
:10C9E0000800000009B504480068044B03441B68B4
:10C9F000DB6A029309BD000014AE071008000000B6
:10CA000009B504480068044B03441B68D3F8883018
:10CA1000029309BD14AE07100800000009B50448D0
:10CA20000068044B03441B68D3F89430029309BD9B
:10CA300014AE07100800000009B504480068044B54
:10CA400003441B685B68029309BD000014AE071025
:10CA50002800000009B504480068044B03441B6823
:10CA60009B68029309BD000014AE07102800000067
:10CA700009B504480068044B03441B68DB68029353
:10CA800009BD000014AE07102800000009B50448D5
:10CA90000068044B03441B681B69029309BD000036
:10CAA00014AE07102800000009B504480068044BC4
:10CAB00003441B685B69029309BD000014AE0710B4
:10CAC0002800000009B504480068044B03441B68B3
:10CAD0009B69029309BD000014AE071028000000F6
:10CAE00009B504480068044B03441B68DB690293E2
:10CAF00009BD000014AE07102800000009B5044865
:10CB00000068044B03441B681B6A029309BD0000C4
:10CB100014AE07102800000009B504480068044B53
:10CB200003441B681B6B029309BD000014AE071081
:10CB30002800000009B504480068044B03441B6842
:10CB40005B6B029309BD000014AE071028000000C3
:10CB500009B504480068044B03441B681B6C02932E
:10CB600009BD000014AE07102800000009B50448F4
:10CB70000068044B03441B685B6C029309BD000012
:10CB800014AE07102800000009B504480068044BE3
:10CB900003441B685B6D029309BD000014AE0710CF
:10CBA0002800000009B504480068044B03441B68D2
:10CBB0009B6D029309BD000014AE07102800000011
:10CBC00009B504480068044B03441B68DB6B0293FF
:10CBD00009BD000014AE07102C00000009B5044880
:10CBE0000068044B03441B681B68029309BD0000E6
:10CBF00014AE07100400000009B504480068044B97
:10CC000003441B685B68029309BD000014AE071063
:10CC10000400000009B504480068044B03441B6885
:10CC20009B68029309BD000014AE071004000000C9
:10CC300009B504480068044B03441B685B6A02930F
:10CC400009BD000014AE07100400000009B5044837
:10CC50000068044B03441B68DB6B029309BD0000B2
:10CC600014AE07100400000009B504480068044B26
:10CC700003441B681B6C029309BD000014AE07102F
:10CC80000400000009B504480068044B03441B6815
:10CC90005B6C029309BD000014AE07100400000095
:10CCA00009B504480068044B03441B689B6D02935C
:10CCB00009BD000014AE07100400000009B50448C7
:10CCC0000068044B03441B68DB6D029309BD000040
:10CCD00014AE071004000000002240681146FFF760
:10CCE0000DBF002240681146FFF724BF00224068B4
:10CCF000FFF712BF0022406881F00101FFF7F0BE8C
:10CD0000002340681A461946FFF7DCBE002340683E
:10CD10001A461946FFF7C8BE002240681146FFF7C1
:10CD2000B5BE002240681146FFF794BE00220221E2
:10CD30004068FFF79DBE002340681A46FFF77CBE9F
:10CD40000322024B5A60024A1A607047D4AE0710A1
:10CD5000A4FB3F020B6803604B68436013B15A6841
:10CD600001325A60704738B5046805467CB1636883
:10CD7000013B63605BB9236820469B689847A368C2
:10CD8000013BA3601BB923682046DB68984728460F
:10CD900038BD00000022024BC3E900229A607047B0
:10CDA000DCAE071010B5044608462170FFF71EFDE3
:10CDB00000232046636010BDB0F90020531C0BD047
:10CDC000438880888B4203D88842034628BF0B469D
:10CDD000194690B2FFF742BD704713B504460846A6
:10CDE000B4F90610B4F90820884210DB9042A8BFBD
:10CDF0001046A3880093638801F074F9E168014448
:10CE0000204689B202B0BDE81040FFF7D5BF084602
:10CE1000EFE700004FF41663034AC0E90023B42390
:10CE200003810023C3607047FFFF200208B5FFF7AE
:10CE3000F1FF08BD10B50446B0F90000431C07D04F
:10CE400080B2FFF7FDFC2046FFF7E4FF012010BD94
:10CE50000020FCE72DE9F0410D460446022128465A
:10CE600090461F46FFF72CFB022803D000263046D1
:10CE7000BDE8F081284601F09DFE06460028F5D069
:10CE8000B4F90030013302D02046FFF7D3FFBDF9DB
:10CE900018302846E380BDF91C302580A4F80280B4
:10CEA000A7802381FFF7BEFCE1E7000002220020FB
:10CEB000044B1A60044B054AC3E900009A60FFF76F
:10CEC00075BD00BFF4AE0710E8AE07100000FFFF0D
:10CED00010B504460068FFF78FFE204610BD10B560
:10CEE0000446006808B1FFF787FE0023C4E9013358
:10CEF000236010BD38B504460D4600680131FFF7C8
:10CF000089FE10B1C4E90005012038BD10B50368E1
:10CF1000044623B143688B4201D3012010BD204653
:10CF2000FFF7E8FF0028F9D0A368002BF5D12268AD
:10CF30001370F2E737B50D46114601920446FFF72C
:10CF4000E5FF019A28B92046FFF7C9FF204603B044
:10CF500030BD2946A260206801F0A0FF00212268B0
:10CF6000A368D154F2E738B5054600680C4670B1A5
:10CF70006A688B689A4208D3096831B102F003F8F5
:10CF8000A368AB600023A36038BDFFF735FE2368BC
:10CF90002B6063686B60A368AB600023C4E9003357
:10CFA000F1E7002310B50446C0E900338360037342
:10CFB000FFF7D9FF204610BD884210B5044605D0C2
:10CFC0000B682BB18A681946FFF7B4FF204610BDE5
:10CFD000FFF785FFFAE7002310B50446C0E90033E8
:10CFE00083600373FFF7E8FF204610BD10B5436868
:10CFF0000446013B436063B903689B689847A36894
:10D00000013BA3602BB923682046BDE81040DB68D4
:10D01000184710BD70B50446D0E9005305EB031660
:10D02000AE4204D02846FFF753FF1035F8E72068DA
:10D03000FFF7E2FD204670BD002302480360FFF7C2
:10D04000A1BA00BFF8AE071010B5044680680368A7
:10D05000DB689847E3681844E06010BDF8B5064601
:10D060000D4600248F18BD420CD0336830469B68B3
:10D0700015F8011B9847031E01DB1C44F3E7002C45
:10D0800008BF1C462046F8BD704710B50446102165
:10D09000FFF741F8204610BD13B50446084659B1C4
:10D0A0000191FFF70FF80246204623680199DB68DB
:10D0B00002B0BDE81040184702B010BD08B5FFF738
:10D0C000EBFF08BD03689B68184738B50D2105467E
:10D0D000FFF7F8FF0A2104462846FFF7F3FF204434
:10D0E00038BD38B50546FFF7D7FF04462846FFF799
:10D0F000ECFF204438BD0023012A98BF0A2230B536
:10D100008BB08DF8243009AC0D46B1FBF2F101FB78
:10D11000125303F0FF03092B94BF30333733DBB2D4
:10D12000AA4204F8013DEFD92146FFF7B5FF0BB045
:10D1300030BD10B50446FFF717FAE06023682046BB
:10D140005B699847002808DAFFF70EFAE368C01A0F
:10D15000A3689842F2D34FF0FF3010BD2DE9F041A3
:10D1600007460C460D468E18B542A5EB040807D0BD
:10D170003846FFF7DEFF031E02DB05F8013BF3E74D
:10D180004046BDE8F0817047084611B10B685B6806
:10D190001847704770477047704738B504460D46CA
:10D1A00000682E2101F0E5FE2368C31A2B6023B12D
:10D1B000037803B1013023682060184638BD10B5EC
:10D1C00004460421FEF7A7FF204610BD10B5044613
:10D1D0000421FEF7A0FF204610BDFFF7EFB908B508
:10D1E000FEF766FFB0FA80F0400908BD704710B541
:10D1F0000C4601F00FF9844205D101F00BF9BDE8AE
:10D20000104001F0FBB801F067FD844205D101F048
:10D2100063FDBDE8104001F052BB2CB123682046ED
:10D22000BDE810405B68184710BD13B504460846BA
:10D230000191FEF747FF02462046019902B0BDE882
:10D24000104001F0D3BA13B5044608460191FEF729
:10D2500039FF0246204623680199DB6802B0BDE829
:10D260001040184707B503688DF807100122DB68E6
:10D270000DF10701984703B05DF804FB2DE9F74F66
:10D280004FF0140AD0E90084174645460AFB04F41F
:10D290000093174BA4105C43002C21DD66100AFBA1
:10D2A00006F005EB0009B9F804B03A465F4528BF1F
:10D2B0005A462858019101F06EFE00284FF00103F4
:10D2C00001990BD15F4503D1009A13703446E3E70F
:10D2D000FCD9A61B09F11405013EF7E7F9DBF5E7D8
:10D2E000A5EB08050248AD10684303B0BDE8F08F18
:10D2F000CDCCCCCC7FB50369057E019103B3F9B1E8
:10D30000002600F10C04039603A901A8FFF745FFCE
:10D310000146A8B10DF10B032046039A8DF80B606E
:10D32000FFF7ACFF9DF80B3053B12368142404FBC6
:10D330000034B4F906300834002BA8BFDDB2E3E7AF
:10D34000284604B070BD0EB4F0B58CB000AF07F144
:10D35000440555F8042B04462B46202107F1100004
:10D360007A60FD60FFF764FC1F287A681AD900F123
:10D37000080323F007036E46ADEB030D411C2B465B
:10D380006846FD60FFF754FC021E04DD2368694611
:10D390002046DB689847B5463037BD46BDE8F040CB
:10D3A00003B070470028F7D023680246DB682046A8
:10D3B00007F110019847EFE710B5084CD4E88F3F0C
:10D3C000DB0709D42046FFF76BFC28B12046FFF7A6
:10D3D00075FC034801F054FD024810BD00AF071072
:10D3E00055DB3F0218AE071010B5084CD4E88F3F4C
:10D3F000DB0709D42046FFF753FC28B12046FFF78E
:10D400005DFC034801F03CFD024810BD04AF07106D
:10D41000ADDB3F021CAE071038B500250446C0E95D
:10D420000055C0E904558560856140F8245FFFF729
:10D43000A9F8FFF7C1FFE061FFF7D6FF257320626F
:10D44000204638BD10B50A4CD4E88F3FDB070CD41A
:10D450002046FFF725FC40B10648FFF7DDFF2046D8
:10D46000FFF72CFC044801F00BFD024810BD00BF83
:10D47000FCAE07100CAF071079E33F020023024A0D
:10D4800002490348FFF776BA61E13F02EDE03F024F
:10D490006DE03F0200231A4619461846FFF76ABAA4
:10D4A00037B504468D686846FFF754FC6A4629463E
:10D4B000204601F0BBF801A8FFF755FC204603B059
:10D4C00030BD37B50446CD686846FFF743FC6A4671
:10D4D0002946204601F086F801A8FFF744FC2046C3
:10D4E00003B030BD37B504460D696846FFF732FC1E
:10D4F0006A462946204601F01EF801A8FFF733FCD2
:10D50000204603B030BD000070B58AB00D4601461C
:10D5100004A8FFF7C5FF144E04A801F09FF8E8B176
:10D52000684604A9FFF7CDFF31460298FFF757FE82
:10D53000044610B12C1E18BF012401A8FFF713FCEC
:10D54000002CE9D0684604A9FFF7CCFF684601F03B
:10D5500028F8286001A8FFF706FCDDE705A8FFF71B
:10D5600002FC0AB070BD00BFF8FB3F0237B50C46A5
:10D57000134920461546FEF79BFD50B900F04AFFBF
:10D580004FF4165100F036FF03B0BDE8304000F014
:10D5900041BF20460B49FEF78BFD78B94FF4165377
:10D5A00001A928460193FFF7AFFF01F095FB019910
:10D5B00001F082F901F090FB03B030BD0020FBE7E1
:10D5C000FDFB3F0204FC3F0270B51426D0E9005376
:10D5D000044606FB0356AE4205D005F10800FFF7EE
:10D5E000F3FF1435F7E72068FFF706FB204670BD10
:10D5F00010B504460C30FFF7E7FF2046FFF70AFDA1
:10D60000204610BD10B50446034B40F8043BFFF71D
:10D61000EFFF204610BD00BF74FB3F0210B504466B
:10D62000FFF7F0FF20462421FEF775FD204610BDD0
:10D6300010B50446024B0360FFF7E4FF204610BD1F
:10D6400090FC3F0210B50446FFF7F2FF204624216C
:10D65000FEF761FD204610BD0A6810B502604A68F9
:10D6600042600022C0E9022202618C688A60846004
:10D67000CC68CA60C4600C690A61046110BD0022F4
:10D68000C0E90022826010B50C680A6004604C6832
:10D690004A6044608C688A60846010BD10B504469E
:10D6A00003681868FEF798FF204610BD2DE9F04F7B
:10D6B00087B003931C4B80465B688946C3F308031D
:10D6C00016466BB9FFF7BEFE044600F12403406A1C
:10D6D0000593FFF782FD237B2BB105A8FFF7DEFF43
:10D6E00007B0BDE8F08F01235FFA89F92373D4E90D
:10D6F000005305EB830AAA4512D055F8047B314646
:10D70000381DFFF7F7FD8145F5D3039A3B6800927A
:10D71000D3F808B04A46334641463846D847EAE788
:10D7200000232373D9E700BF00ED00E02DE9F74F98
:10D730009B461A4B80465B688946C3F3080316462E
:10D740006BB9FFF77FFE044600F12403406A0193A2
:10D75000FFF743FD237B2BB101A8FFF79FFF03B029
:10D76000BDE8F08F0123F6B22373D4E9005305EB33
:10D77000830A55450ED055F8047B5946381DFFF7EE
:10D78000B9FD8642F5D33B684A4641463846DB68D8
:10D790009847EEE700232373DEE700BF00ED00E0CB
:10D7A0002DE9F341164B05465B680F46C3F30803AA
:10D7B0001BBBFFF747FE044600F12403406A0193B8
:10D7C000FFF70BFDD4E90063462406EB8308B04560
:10D7D00009D101A8FFF762FFA542B4BF00200120D4
:10D7E00002B0BDE8F08156F8040B39460430FFF76B
:10D7F00081FD8442A8BF0446E9E70020F0E700BFAE
:10D8000000ED00E0F8B5D0E901539D4204460E4614
:10D810000DDB6F1C002F006804DDB900FFF7FAF97B
:10D8200018B9F8BDFFF7E8F900202060A760276865
:10D83000626807EB85019200A2EB8502081D01F0EA
:10D840003AFB47F825606368012001336360E8E72D
:10D8500037B5044600F12403406A01930D46FFF7F3
:10D86000BCFCD4E9003203EB8202934219460AD091
:10D8700009680433A942F8D101A8FFF70FFF00257A
:10D88000284603B030BD29462046FFF7BBFF0546BA
:10D890000028F1D06368012B01D1FFF7EFFD01A84B
:10D8A000FFF7FCFEECE70B4670B50446D0E900023A
:10D8B00000EB820282420FD001461D6851F8046BD2
:10D8C000AE4207D1521A01F0F6FA01206368013B1B
:10D8D000636070BD0846EDE70020FAE71FB5044617
:10D8E00000F12403406A01910393FFF776FC204680
:10D8F00001A9FFF7D8FF18B163680BB9FFF7CAFD9C
:10D9000003A8FFF7CBFE04B010BD182370B5044682
:10D91000D0E9045603FB0656AE4215D0204605F169
:10D920001001FFF7C0FF63680BB9FFF7B3FDE069B3
:10D9300029690368DB689847696919B1206A036837
:10D94000DB6898471835E7E71826D4E9045306FB47
:10D950000356AE4204D02846FFF7BAFA1835F8E766
:10D960000023636170BD73B50446FFF793FD04F1B6
:10D970002403606A0193FFF730FC2046FFF7C5FFE0
:10D9800001A8FFF78BFE606A08B1FEF709FED4E933
:10D990000453182606FB0356AE4204D02846FFF770
:10D9A00097FA1835F8E72069FFF726F92068FFF79E
:10D9B00023F9204602B070BD0148FFF7D4BF00BF75
:10D9C0000CAF07108842F8B504460D46164615D927
:10D9D000904214D2A2F11406751AA1F114072C4436
:10D9E000B7421AD01CB131462046FFF735FE06F18A
:10D9F0000800FFF7E9FD143E143CF1E70DD0B542F5
:10DA00000BD01CB129462046FFF726FE05F1080081
:10DA1000FFF7DAFD14351434F1E7F8BD8842F8B5A4
:10DA200004460D46164614D9904213D2A2F11006B0
:10DA3000751AA1F110072C44B74218D01CB1314619
:10DA40002046FFF7AEFA3046FFF742FA103E103C90
:10DA5000F2E70CD0B5420AD01CB129462046FFF7A8
:10DA6000A0FA2846FFF734FA10351034F2E7F8BD73
:10DA700070B50E1E054611DD3001FFF7AFF8044604
:10DA800058B1D5E9001201EB0212FFF7C7FF286871
:10DA9000FFF7B2F801202C60AE6070BD0024F6E7FD
:10DAA0002DE9F04F90460023462295B00391D8F817
:10DAB000041004469942C0E90033C0E90233C0E9CA
:10DAC0000433CDE9083302760A9323DCD8E9005702
:10DAD000142303FB0757AF423BD029460BA8FFF79F
:10DAE00060FA0BA90FA8099EFFF75BFADDE909139D
:10DAF00099421BDA089B099A03EB0616314603EBA1
:10DB0000021206F11000FFF789FFEEB9099B0133FD
:10DB1000099311E008A8FFF7ABFF0028D6D108A8A9
:10DB2000FFF778FA204615B0BDE8F08F013108A85C
:10DB3000FFF79EFF0028DDD10FA8FFF7C9F90BA85A
:10DB4000FFF7C6F91435C6E730460FA9FFF729FAE3
:10DB5000DCE700264FF01409CDE90B660D96DDE9F0
:10DB600008239E427CDA3301D35806930BB9013661
:10DB7000F5E70023079309FB06F30BAD029307A912
:10DB800006A8FFF70AFB82460028F0D04FF00003FA
:10DB900001468DF817302846079A0DF11703FFF755
:10DBA0006DFB9DF817700190002F4AD1BDF81C3015
:10DBB000CDE91177ADF840304FF6FF73CDF83CA0BA
:10DBC000ADF842301397D5E90132934217DB03F1E8
:10DBD000010ABAF1000F30DD09FB0AF0FEF7FEFF83
:10DBE000834660B3D5E9001209FB0212FFF7EAFE93
:10DBF0002868FFF701F8C5F800B0C5F808A02B6841
:10DC0000019A09FB023A6A68514609FB02320AF19D
:10DC10001400FFF7D7FEBAF1000F03D050460FA94A
:10DC2000FFF71AFD6B6801336B6011A8FFF7CCFC9E
:10DC30003FB10BA8FFF7C8FC71E7BB46D8E7012747
:10DC4000F3E7019B2D6809FB0355069B1B782BB955
:10DC5000D8F80030029A13441B7CEB8008358EE71D
:10DC60002168226062686360A36809920A9A0A9335
:10DC7000E368A2600B9A0B932369E2600C9A0C9301
:10DC8000636922610D9A0D93039B0891626123766B
:10DC9000CFE70000F0B504462646174687B00D468C
:10DCA00068461946FEF761FB0B4B694646F8043B94
:10DCB00003A8FEF75AFB394603AA3046FFF7F0FEE9
:10DCC00003A8FEF711FB6846FEF70EFB2046034B48
:10DCD0002562236007B0F0BD74FB3F0278FC3F0271
:10DCE000F0B50F4685B038461C4916461D460A9CBD
:10DCF000FEF7DEF9C0B9A4B1294601A8FFF7BFFCC1
:10DD00002420174901F0B8F8054630B101AB32467E
:10DD10002146FFF7BFFF134B2B6001A8FEF7E4FA83
:10DD20002C46204605B0F0BD38460F49FEF7C0F935
:10DD300090B9002CF5D0294601A8FFF7A0FC2420BB
:10DD4000074901F099F805460028E6D032462146F9
:10DD500001ABFFF79FFFE0E70024E2E70CFC3F0286
:10DD600034FE3F0290FC3F0210FC3F02014B024A8E
:10DD70001A60704708AF071021FC3F022DE9F047F9
:10DD8000089DD0F8209004460E461746984600F0AD
:10DD900041FB81454DD02B79190704D520466A698E
:10DDA0005449FFF7D0FAB8F1000F0DD05B2120469F
:10DDB000FFF758FA41462046FFF745FA236802224A
:10DDC0002046DB684C4998472B79DA0724D5D5F8EB
:10DDD00008802F21404601F0F2F808B100F1010857
:10DDE00041462046FFF72FFA2B799B0708D53A21A9
:10DDF0002046FFF737FA2046EA684049FFF7A3FAC2
:10DE00002A79236812F0040F20464FF00202DB68E3
:10DE100014BF3B493B4998472B7958071DD52969C1
:10DE20000B461A4613F8010B60B1202808D1194699
:10DE3000F7E7354800F017FE0028ACD0BDE8F087C2
:10DE40002828EED12368521A2046DB6898472368B9
:10DE500004222046DB682D49984700213846FEF70A
:10DE60007BFD01462046FFF7EEF92368022220469B
:10DE7000DB68244998471EB131462046FFF7E3F995
:10DE80002B7913F0300F2CD023682149DB68022254
:10DE9000204698472B79D9060AD5236807222046C1
:10DEA0001C49DB6898472046AA691B49FFF74BFAD3
:10DEB0002B799A0611D5DB0605D523680222204668
:10DEC000DB680F4998472368204614490A22DB681B
:10DED00098472046E969FFF7B6F95D212046FFF72C
:10DEE000C1F923682046BDE8F0470222DB680C49EF
:10DEF000184700BF25FC3F022CFC3F022FFC3F02CD
:10DF000032FC3F0237FC3F0284AF071035FC3F0272
:10DF10003AFC3F023DFC3F0245FC3F0248FC3F0209
:10DF200053FC3F022DE9F0410446076A0D461646B0
:10DF300000F070FA874207D0206A3246036829460B
:10DF4000BDE8F041DB681847034800F08CFD00286D
:10DF5000F2D0BDE8F08100BF84AF07102DE9F04397
:10DF600085B0D0F8209005460F4690461E460C9C82
:10DF700000F050FA814505D1494800F074FD0028B1
:10DF800040F08A804FF000092B6A464A6846CDE986
:10DF9000023900928DF8049000F089FB4946404612
:10DFA000FEF7DAFC804640490122684600F00EFC8C
:10DFB0004146FFF73AF93FB13C490122684600F07B
:10DFC00005FC3946FFF731F93EB13949012268466F
:10DFD00000F0FCFB3146FFF728F92379DF070ED567
:10DFE000A6682F21304600F0EAFF00B1461C3149F7
:10DFF0000122684600F0EAFB3146FFF716F9237963
:10E000009E0707D52C490222684600F0DFFBE16835
:10E0100000F05AFB2379580714D5266933461F466A
:10E0200013F8012B2AB1202A01D11E46F7E7282A2E
:10E03000F5D102222149684600F0C8FB3146BA1BDF
:10E0400000F0D4FB2379190707D51D490122684642
:10E0500000F0BCFB616900F049FB2379DA0607D5C3
:10E0600018490422684600F0B1FBA16900F02CFBBE
:10E0700023799B0607D514490622684600F0A6FBC3
:10E08000E169FFF7D2F8684600F0FBFA286A02223D
:10E0900003680E49DB68984705B0BDE8F08300BF10
:10E0A00084AF0710E8FB3F0202FC3F0256FC3F0230
:10E0B000C7FE3F0258FC3F025AFC3F025DFC3F0294
:10E0C00060FC3F0262FC3F0267FC3F0253FC3F02E0
:10E0D000024B1A68024B1A60704700BF20AE07104F
:10E0E00034AF07108A4210B507D0441A0298C01AFC
:10E0F0004443501A94FBF0F0184410BD0021FEF781
:10E1000063BC00000022014B9A60704738AF0710D3
:10E11000014B1860704700BF24AE071008B50F4BC5
:10E1200043B100F077F903681B699847002801DDC7
:10E1300000E000BF0A4B43B100F0CEFD03681B694D
:10E140009847002801DD00E000BF064B0BB100F04E
:10E1500009FE054B0BB100F03BFE08BD00000000BE
:10E1600000000000000000000000000008B5FFF7FC
:10E17000D5FFFEF7F9F9014B186008BDE0AF0710B5
:10E180000548064A08B5121A054900F087FE054BF6
:10E19000054A1A6008BD00BF00B4071004B4071098
:10E1A000ACF65F0800B407101E1C279A002307B5C1
:10E1B0001A466FF077010093FEF730FC03B05DF86C
:10E1C00004FB000007B543880A2B08D0502B0BD165
:10E1D000094B1B684BB103B05DF804EB1847FFF720
:10E1E000E5FF03B05DF804FB00231A466FF07701EA
:10E1F0000093FEF713FCF4E74CAF0710002110B5B5
:10E200001148FEF73FFD114B1A68114B9A420CBFA3
:10E21000012200220F4B1A7001D0FFF7B1FFFEF769
:10E2200095F9044600F06AFE0B4B13B1204600E05E
:10E2300000BF00210848FEF7C3FCBDE810400021E4
:10E240000648FEF7DDBB00BFD1EA3F0200B407106D
:10E250001E1C279A48AF07100000000085EB3F0204
:10E26000704710B504461821FDF755FF204610BD34
:10E27000F0B5037D0E46062B4FF000048DB000F183
:10E28000040712D000F1080515F8011D0A223046D6
:10E29000FEF731FFAF42044419D0002CF4D02E21F8
:10E2A0003046FEF70FFF0444EEE72F236A46394657
:10E2B0000A208DF80040FEF79DF96846FDF702FF41
:10E2C0003368024669463046DB6898470446204674
:10E2D0000DB0F0BD10B50446044B1122002140F8EA
:10E2E000043B00F002FE204610BD00BFF4FC3F02DC
:10E2F0000346074A10B543F8042B01F1100251F808
:10E30000044B914243F8044BF9D10A781A7010BDBE
:10E31000F4FC3F0210B59DF8084044EA032343EAA9
:10E320000242042342EA01614160037510BD00000E
:10E3300007B5064B0360CB7800938B784A78097851
:10E34000FFF7E8FF03B05DF804FB00BFF4FC3F02F9
:10E35000417470477047704708B50021007CFEF794
:10E36000D1FA40EAE07008BD08B50121007CFEF753
:10E37000C9FA40EAE07008BD08B5007CFEF7B4FABF
:10E3800020EAE07008BD08B5007CFEF79FFA20EA9D
:10E39000E07008BD13B50446007C0191FEF7A4FAB5
:10E3A0000028019901DC607C20B1207CFEF7B8FADE
:10E3B00020EAE07002B010BD007CFEF7BFBA10B5D5
:10E3C00004461421FDF7A7FE204610BD10B54FF4FA
:10E3D0007A73044608460021C4E90113044B2074F3
:10E3E0002360012311466374FEF746FA204610BDF0
:10E3F00008FD3F020022007CFEF74CBA007CFEF7CD
:10E4000057BA10B504461422002100F06EFD2046D4
:10E4100010BD000010B588B003A8FFF7F2FF0C4C48
:10E42000D4E88F1F11F001010FD120460191FEF7B2
:10E4300037FC019948B103AA0648FFF7C7FF2046F9
:10E44000FEF73CFC044800F01BFD024808B010BD7C
:10E4500050AF071054AF071015ED3F02012200F135
:10E46000100313F8101C1846012908D153F8041C96
:10E4700002EB4102013A03F11003F2D17047022985
:10E4800004BF53F8041C5218F4E70EB4F0B588B07A
:10E49000102100AF07F1340555F8042B04462B4634
:10E4A00078187A60FD60FEF7C3FB0F287A681AD9E6
:10E4B00000F1080323F007036E46ADEB030D411C8A
:10E4C0002B466846FD60FEF7B3FB021E04DD2368A1
:10E4D000694620469B689847B5462037BD46BDE84B
:10E4E000F04003B070470028F7D0236802469B68CD
:10E4F000204607F110019847EFE738B50B6804464E
:10E5000003604D6843689D4208D015B16B680133C4
:10E510006B60606808B1FEF769FD656038BD07B5DE
:10E5200003688DF8071001229B680DF107019847D9
:10E5300003B05DF804FB0B461146002210B50446FB
:10E54000C0E9002283600BB9204610BDFFF7D5FF5C
:10E55000FAE78368EBB11A78032A1AD8DFE802F0E9
:10E560000417021B0520704702685B685268D05C84
:10E570002D2812D0A0F13003092B0ED974280ED00B
:10E5800066280CD0A0F16E0358425841704706200F
:10E590007047002070470420704703207047022016
:10E5A000704710B50446FFF7D4FF02280ED0C31EF3
:10E5B000DBB2012B14D82268A36850685B680A227A
:10E5C000BDE810400021184400F090BD2268A36807
:10E5D00052685B68D05CA0F174035842584110BD8A
:10E5E0000020FCE738B500230446C0E900330E489C
:10E5F000C4E90203A9B10B78032B06D08BB91368C9
:10E6000058684B68C35C6E2B07D013684D68586818
:10E610008B6828445B1BA060E36011462046FFF72F
:10E620006CFF204638BD00BF55FC3F0238B50025C1
:10E630000B4604461146C0E90055C0E90255C0E941
:10E6400004554BB11A78012A06D103F11002DB6898
:10E6500082604361FFF751FF204638BD10B5436922
:10E66000044663B18068013BE0601030A060206127
:10E67000636113B1FFF7F2FEA060012000E01846CD
:10E6800010BD10B57D210446FFF749FF0123204648
:10E69000237110BD08B50379012B02D0022B04D0E1
:10E6A00008BD2C21FFF73BFFFAE73A21FAE710B546
:10E6B0000446FFF7EFFF20467B21FFF730FF0023E2
:10E6C0002046237110BD000013B504460191FFF7E9
:10E6D000E1FF23682046DB68019A0349984701233C
:10E6E0002046237102B010BD2FFC3F0213B5044633
:10E6F0000191FFF7CFFF23682046DB68019A0349A9
:10E70000984701232046237102B010BD34FD3F021B
:10E710002DE9F0470D469046222104462F46FFF78B
:10E72000FEFEDFF8A490A8444745BA463DD017F84E
:10E73000016B222E06D05C2E04D0304600F0A6FBE2
:10E740000028F1D12368294620469B68AAEB0502E0
:10E7500098475C212046FFF7E2FE0D2E0AD8072ECF
:10E760001CD9A6F10803052B18D8DFE803F00D0F1C
:10E7700011171315222E01D05C2E0FD131462046E1
:10E78000FFF7CDFE3D46CFE76221F8E77421F6E7BB
:10E790006E21F4E76621F2E77221F0E72368324642
:10E7A00049462046DB689847ECE7BD4205D0236820
:10E7B000294620469B687A1B984722212046FFF76E
:10E7C000AEFEBDE8F08700BF37FD3F0213B504463B
:10E7D000CDE90021FFF75EFFDDE900212046FFF7CC
:10E7E00097FF02232046237102B010BD13B50446E3
:10E7F000CDE90021FFF74EFFDDE900212046FFF7BC
:10E8000087FF01232046237102B010BD7047417479
:10E81000704708B5007CFDF75DFF20EAE07008BD99
:10E8200008B5007CFDF710FF20EAE07008BD08B5D0
:10E83000007CFDF725FF40EAE07008BD08B5007CCC
:10E84000FDF710FF40EAE07008BD007CFDF726BF31
:10E8500037B5457C04462DB1207C03B0BDE830407F
:10E86000FDF7E4BE007C0191FDF734FF002801991B
:10E87000F2DC284603B030BD10B504461421FDF784
:10E880004AFC204610BD000010B54FF47A730446D0
:10E89000084611460022C4E90123044B207423607A
:10E8A00001236374FDF732FF204610BD48FD3F028F
:10E8B0000023007CFDF71CBF0022FFF7F9BF007C9E
:10E8C000FDF7A6BE007CFDF7F7BE7047F8B506461B
:10E8D00015460C468F18BC4206D0336830469B68FC
:10E8E00014F8011B9847F6E72846F8BD0022007C83
:10E8F000FDF71ABF0021007CFDF724BF0021007C3A
:10E90000FDF72EBF0021007CFDF738BF0021007C01
:10E91000FDF742BF10B504461421FDF7FCFB20466D
:10E9200010BD000038B5044615464FF47A73002236
:10E93000C4E90123094B0846217423602946FDF7E9
:10E9400047FFBF3008D16B69DB0705D56868FEF764
:10E9500053F9E868FEF750F9204638BD7CFD3F02C8
:10E96000FF210022044B0120C3E9001264211A6137
:10E97000C3E90201704700BF68AF0710002240687A
:10E980001146FEF783B8002240681146FEF7B6B87C
:10E99000002240681146FEF7CDB800224068FEF71D
:10E9A000BBB80022406881F00101FEF799B800234E
:10E9B00040681A461946FEF785B8002340681A4693
:10E9C0001946FEF771B8002240681146FEF742B8BA
:10E9D000002202214068FEF74BB8002340681A4627
:10E9E000FEF72AB80422024B5A60024A1A607047A6
:10E9F0007CAF0710A8FD3F02002340681A46FEF7CF
:10EA00001BB8002202214068FEF732B8002240689D
:10EA10001146FEF71FB8002240681146FEF736B8CF
:10EA2000002340681A461946FEF73EB800234068A6
:10EA30001A461946FEF746B800214068FEF788B826
:10EA400000214068FEF792B80022406881F0010181
:10EA5000FEF746B800224068FEF75EB80022406824
:10EA60001146FEF767B8002240681146FEF746B827
:10EA700000214068FEF796B82DE9F043002698463D
:10EA800099B00D4614460746FFF724FC1C22314678
:10EA900011A8039600F029FAB8F1000F2CD14023F9
:10EAA00068681093049618B104A9C0B2FDF740FD40
:10EAB000049B20460093002103AB10AAFDF7F2FC53
:10EAC000044600284DD1024601216868FDF7DEFFAB
:10EAD0000221804622466868FDF7D8FF214681461C
:10EAE000039E002E3DD000293BD17368022B05D038
:10EAF0000A2B13D0F669F4E71D4BD1E7B8F1000FEC
:10EB0000F8D071690AA804313C1D0BADFFF710FC69
:10EB10000FCD0FC42B6841462370EBE7B9F1000F0E
:10EB2000E8D0102205A8746900F0DFF9062305ADCE
:10EB30008DF8243004F1080318342A4618685968FF
:10EB4000083303C2A3421546F7D105A90AA83C1D04
:10EB50000BADFFF7CDFB0FCD0FC42B6849462370DB
:10EB6000C8E70398FDF790FC384619B0BDE8F0837C
:10EB700040000040033802289ABF024B53F820009F
:10EB800001487047E4FD3F0284AF071008B500223A
:10EB90004068FDF7F9FFBDE80840FFF7EBBF000054
:10EBA000024B034A1A6000225A60704784AF071074
:10EBB000F8FD3F021B2837B5044602D9002003B0F8
:10EBC00030BDA0F10F03022B0BD9012821D800F092
:10EBD0002FF90021007CFDF7EDFD80F00100C0B2AF
:10EBE000EDE7114DD5E88F1F11F001010BD128463B
:10EBF0000191FEF755F8019928B10C48FEF7D2F8BB
:10EC00002846FEF75BF8094B1878FDF7FDFD002854
:10EC1000D4D1083C012C05D800F05EF8007CFDF74B
:10EC20004BFDDAE70120CAE78CAF071090AF071061
:10EC30001B2838B504460D460AD8FF2908D0FFF72F
:10EC4000B9FF28B129462046BDE83840FDF746BC4B
:10EC500038BD10B50446FDF74FFC031FDBB2012B96
:10EC600008D92046FFF7A6FF20B12046BDE8104096
:10EC7000FDF750BC002010BD7047000038B51425CA
:10EC800004462A46002100F030F925804025074936
:10EC900028462581258200F0F1F804496060284665
:10ECA00000F0ECF8E060204638BD00BF34FE3F02C3
:10ECB0007047704710B50446FFF7E0FF204610BDCF
:10ECC00010B50446FFF7DAFF204610BD10B5044624
:10ECD000FFF7D4FF204610BD30B50E4D87B0D5E804
:10ECE0008F1F11F0010411D12846FDF7D9FF68B13B
:10ECF00001A8FFF7DFFF214601AA0748FFF7C4FD7F
:10ED00002846FDF7DBFF054800F0BAF8024807B0D7
:10ED100030BD00BF98AF0710A4AF071039F63F020F
:10ED200010B50D4C86B0D4E88F3FDB0711D42046D8
:10ED3000FDF7B6FF68B101A8FFF7C2FF012101AAE4
:10ED40000648FFF7A1FD2046FDF7B8FF044800F094
:10ED500097F8024806B010BD9CAF0710B8AF071077
:10ED600073F63F0210B5FFF7DBFF074B044653B1C4
:10ED7000FFF7A8FD38B1236820461B699847002893
:10ED800001DD00E000BF10BD0000000010B50D4C1B
:10ED900086B0D4E88F3FDB0711D42046FDF780FF13
:10EDA00068B101A8FFF792FF022101AA0648FFF708
:10EDB0006BFD2046FDF782FF044800F061F8024831
:10EDC00006B010BDA0AF0710CCAF071071F63F0220
:10EDD00010B5FFF7DBFF074B044653B1FFF772FD99
:10EDE00038B1236820461B699847002801DD00E000
:10EDF00000BF10BD000000007047000038B50A4B8E
:10EE000004460360012309494361202000F036F8DD
:10EE10002025606005492846A56000F02FF8C4E968
:10EE20000305204638BD00BF1800010034FE3F0234
:10EE300030B50E4D87B0D5E88F1F11F0010411D108
:10EE40002846FDF72DFF68B16846FFF7D7FF6A46F1
:10EE500021460748FFF766FD2846FDF72FFF0548C6
:10EE600000F00EF8024807B030BD00BFE4AF071055
:10EE7000E8AF0710B9F73F02FDF749B9FDF749B907
:10EE8000002301461A461846FDF760B9024B1844A4
:10EE9000407800F097007047C9FE3F020A44431EC5
:10EEA000914200D1704710B511F8014B914203F81F
:10EEB000014FF9D110BD884210B501EB020402D90F
:10EEC0008442234607D8431EA14208D011F8012BE3
:10EED00003F8012FF8E7024401468A4200D110BD31
:10EEE00013F8014D02F8014DF7E70244034693423F
:10EEF00000D1704703F8011BF9E7000038B5104B4B
:10EF000004461D68AB6BB3B91820FDF767FE0246D7
:10EF1000A86320B90B4B42210B48FDF7A5FE0B4916
:10EF20000B4BC0E900130B4B002183600B23838143
:10EF30000120C2E90401AB6B00221C615A6138BD9B
:10EF400024AE071035FE3F024CFE3F020E33CDAB20
:10EF500034126DE6ECDE0500C9B2034610F8012B51
:10EF60001AB18A42F9D118467047002918BF002308
:10EF7000F9E710B50446FFF7EFFF18B92046FDF793
:10EF8000A1F8204410BD034611F8012B03F8012B12
:10EF9000002AF9D1704710B57AB1034601398418B7
:10EFA00013F8010B11F8012F904201D1A34201D1B6
:10EFB000801A10BD0028F3D1FAE71046F9E738B5FA
:10EFC00003460C4669B9BDE83840FFF7C5BF431C8E
:10EFD000054621461846FFF7BFFF0028F7D128460F
:10EFE00038BD0025F5E70000012B2DE9F04701D0E1
:10EFF000242B06D9FDF72AFE162303600020BDE866
:10F00000F0870D46DFF8E0C02E4615F8014B14F8E6
:10F010000C7017F00807F7D12D2C32D12C7801276E
:10F02000B51C002B5BD0102B09D1302C07D12C78CC
:10F0300004F0DF04582C4DD16C781023023507F111
:10F0400000484FF0000C08F1FF386646B8FBF3F9B2
:10F0500003FB198AA4F1300EBEF1090F16D87446CD
:10F06000A34224DDBCF1000F1EDBB1451CD301D14E
:10F07000A24519DB06FB03464FF0010C15F8014BC6
:10F08000E8E72B2C04BF2C78B51CCAE7A4F1410E8D
:10F09000BEF1190F01D8373CE2E7A4F1610EBEF1D1
:10F0A000190F04D8573CDBE74FF0FF3CE6E7BCF113
:10F0B000000F05DA22234646036042B930469EE738
:10F0C00007B17642002AF9D0BCF1000F00D0691ECA
:10F0D0001160F3E73024002BB1D10823AFE7302CC7
:10F0E000A5D00A23ABE700BFCAFE3F0213460A467B
:10F0F000014602480068FFF777BF00BF24AE071043
:10F1000095CA3F02BDCA3F02C1CA3F0200000000CB
:10F1100043616C6C206F6E20707572652076697229
:10F120007475616C004D6F646520303A2053544F04
:10F1300050004D6F646520313A204D4158204357AF
:10F14000004D6F646520323A204D415820434357AB
:10F150000053797374656D20726561647900507233
:10F1600065737320627574746F6E20746F206368AA
:10F17000616E6765206D6F64653A2030202D3E20FA
:10F1800031202D3E2032202D3E20300042757474F7
:10F190006F6E2070726573736564207C204E657796
:10F1A000206D6F6465203D2000000000000000001D
:10F1B000000000000000000000000000DDCA3F0267
:10F1C0000FCB3F02000000000000000011CB3F0207
:10F1D00045CB3F023DE73F02E5E83F02000000006B
:10F1E00000000000F7D63F02EDD63F02E3D63F0213
:10F1F000D9D63F02CDD63F02C1D63F02F9F33F0236
:10F2000001F43F02B5D63F02ADD63F02A3D63F027E
:10F2100099D63F024DF53F0231F43F0239F43F02E7
:10F22000000000000000000049DA3F024BDA3F0214
:10F2300009DA3F024BEE3F0262617564005365726A
:10F2400069616C0053657269616C31004A534F4EBD
:10F2500053747265616D4C6F6748616E646C657262
:10F260000061707000253031307520005D20002570
:10F2700064002C200028293A2000205B00636F6482
:10F2800065203D200025690064657461696C732008
:10F290003D20000D0A006D0066006C6E00666E0079
:10F2A0007400636F64650064657461696C000000DC
:10F2B0000000000000000000C5DF3F02DDDF3F026C
:10F2C0003DE73F02E5E83F020000000000000000CB
:10F2D000F1DF3F0205E03F021DE93F0247DB3F024D
:10F2E000000000000000000059DB3F027FDB3F020E
:10F2F000A1E63F0249DB3F020000000000000000E1
:10F3000057DB3F028DDB3F022DDF3F02AFDB3F02C9
:10F3100025592D256D2D25645425483A254D3A252E
:10F3200053257A0061736374696D65000000000005
:10F330000000000031EC3F0221EC3F0223EC3F02D1
:10F34000000000000000000017ED3F027FED3F02CB
:10F3500055ED3F021DDA3F0247ED3F0219ED3F0236
:10F3600029ED3F0279ED3F021DDB3F0239ED3F02FF
:10F3700011ED3F022575007525303478000000003E
:10F380000000000000000000CDF13F0239F23F0212
:10F3900011F23F021DDA3F02E1F13F02FDF13F02AF
:10F3A000EFF13F020BF23F021DDB3F02CFF13F02C4
:10F3B000D3F13F0200000000000000008BF23F028A
:10F3C000D5F23F02ADF23F028DF23F02B5F23F02AD
:10F3D000BDF23F02C5F23F02CDF23F021DDB3F020C
:10F3E00000000000000000009BF33F0291F33F0289
:10F3F00087F33F023DF33F027BF33F026FF33F028F
:10F40000F9F33F0201F43F0263F33F025BF33F0273
:10F4100051F33F0247F33F024DF53F0231F43F0203
:10F4200039F43F02D4AE07107CAF071084AF071049
:10F430000000000000000000B9F33F02C3F33F02E8
:10F44000CDF33F02D7F33F02E1F33F02EDF33F027A
:10F45000F9F33F0201F43F0209F43F0215F43F02C1
:10F460001DF43F0227F43F024DF53F0231F43F0205
:10F4700039F43F02005245454E54206D616C6C6F6B
:10F480006320737563636565646564002F6D6E74D6
:10F490002F776F726B73706163652F776F726B7309
:10F4A000706163652F4743432D31302D706970655E
:10F4B0006C696E652F6A656E6B696E732D47434389
:10F4C0002D31302D706970656C696E652D34385F33
:10F4D00032303230313132345F31363036313830DB
:10F4E0003634312F7372632F6E65776C69622F6EBD
:10F4F00065776C69622F6C6962632F7374646C69E1
:10F50000622F72616E642E63000020202020202074
:10F5100020202028282828282020202020202020C3
:10F5200020202020202020202020881010101010C3
:10F530001010101010101010101004040404040413
:10F5400004040404101010101010104141414141F6
:10F55000410101010101010101010101010101015B
:10F5600001010101011010101010104242424242EC
:10F57000420202020202020202020202020202022B
:10F580000202020202101010102000000000000011
:10F59000000000000000000000000000000000006B
:10F5A000000000000000000000000000000000005B
:10F5B000000000000000000000000000000000004B
:10F5C000000000000000000000000000000000003B
:10F5D000000000000000000000000000000000002B
:10F5E000000000000000000000000000000000001B
:10F5F000000000000000000000000000000000000B
:10F6000000000000000000000000000091CD3F025B
:10F6100001D73F0255D73F026DD83F02F9D93F02CB
:10F620002DE73F0291EA3F02C5EA3F0221F33F0284
:08F63000A5F33F0261F53F0262
:10F6380000000002A8FC3F02C0FC3F02E4FC3F02BD
:10F6480028AE0710000000000000000000000000C5
:10F6580000000000000000000000000000000000A2
:10F668000000000000000000000000000000000092
:10F678000000000000000000000000000000000082
:10F688000000000000000000000000000000000072
:10F698000000000000000000000000000000000062
:04F6A800000000005E
:04F6AC00000000005A
:10FFBE000200100000C05F08A8C05F0868CA3F02B8
:10FFCE0001000A00FFFFFFFFFFFF00000102030414
:10FFDE0005060708090A0B0C0D0E0F10111213144B
:0EFFEE0015161718191A1B1C1D1E1F203E0089
:04FFFC0078563412ED
:04000005085FC018B8
:00000001FF
