:02000004085F93
:10C0000000C05F08FCFF5F0800000600200005017B
:08C010000401A2180000000069
:10C018001348144908B5884205D0134A824202D011
:10C02800124B121A98471248124A0021124B121A40
:10C03800984712481249884205D0124A824202D0D3
:10C048000A4B121A984710481049884205D0104ADE
:10C05800824202D0054B121A9847014808BD00BF1A
:10C0680054AE0710B8EF5F08C8AE07102D0D1110B9
:10C07800C8AE0710FCAF0710A10E1110E8D03F02A0
:10C08800A8C05F08F0D03F02F0D03F02B0C05F0800
:0CC09800F8FF3F0219C05F080000000024
:08C0A8009CC05F0870FB3F0221
:10C0B00010F8012B11F8013B012A28BF9A42F7D052
:10C0C000D01A7047034613F8012B002AFBD1181A27
:10C0D0000138704770B501F095FE0025054E064CFD
:10C0E000A41BA408AC4200D170BD56F8043B98478D
:10C0F0000135F7E7CCFF3F02F8FF3F0200F04CB8F4
:10C1000008B500F058F8BDE8084001F033BE00F073
:10C11000FDBB00F0FBBB00F007BC0000744600B59F
:10C120008DB02C22002101A802F0F7FB054B0494EE
:10C130000193054B02937B46002101A8039300F075
:10C14000BFFAFEE72C000C0080FB3F0270477047EF
:10C1500010B50446094B036000F084FF214601F04E
:10C16000CDF901F05BFF01F04DFF2046044B40F894
:10C17000043B01F04DF8204610BD00BFB8FB3F0264
:10C18000A0FB3F0210B50446FFF7E2FF2046242142
:10C19000FFF7C1FF204610BD08B501F03FFF4FF487
:10C1A000165101F02BFF02F0EFFABDE808404FF402
:10C1B000165102F085B910B502F0E6FA03681B6962
:10C1C000984750B102F0E0FA03685B69984704466B
:10C1D00001F024FFE1B200F094FDBDE810403220F0
:10C1E00001F090BD70B51426D0E90053044606FB5B
:10C1F0000356AE4204D0284600F07EFC1435F8E722
:10C20000206800F091FB204670BD8842F8B50446D6
:10C210000D46164616D9904215D2A2F11406751A8B
:10C22000A1F114072C44B7421CD02CB13146204652
:10C2300000F0CBFC337C2374304600F05DFC143EF0
:10C24000143CF0E70ED0B5420CD02CB12946204664
:10C2500000F0BBFC2B7C2374284600F04DFC143509
:10C260001434F0E7F8BD00232DE9F041C0E90033B4
:10C2700083604F6804469F420E4624DD4FF0140849
:10C2800008FB07F000F042FB0546E0B1D4E90012DC
:10C2900008FB0212FFF7B9FF206800F045FB25609C
:10C2A000A760D6E9007308FB0378B84509D0394682
:10C2B000284600F0A4FC3B7C143505F8043C1437F8
:10C2C000F3E7736863602046BDE8F08170B5002431
:10C2D000234B244A8CB09A60C3E90044012000F04B
:10C2E000FDF92146012000F015FACDE90044029441
:10C2F00001F094FE1C4C05462646694603A8FFF74C
:10C30000B2FF03A906A8FFF7AEFF184B06A946F82F
:10C31000043B09A8FFF7A7FF09AA1E21304601F038
:10C32000CFF909A8FFF75EFF06A8FFF75BFF104BE8
:10C330002562236003A8FFF755FF0E4B236001F031
:10C340006DFE4FF4165101F059FE00F08BFE2146B0
:10C3500001F08EF86846FFF745FF0CB070BD00BFD6
:10C36000C8AE07100000FFFFD4AE0710A0FB3F02CD
:10C37000A4FC3F02B8FB3F0209B504480068044B27
:10C3800003441B689B68029309BD000054AE07106C
:10C390005000000009B504480068044B03441B68C2
:10C3A0005B69029309BD000054AE07105000000005
:10C3B00009B504480068044B03441B689B69029359
:10C3C00009BD000054AE07105400000009B5044830
:10C3D0000068044B03441B685B68029309BD0000BE
:10C3E00054AE07100000000009B504480068044B73
:10C3F00003441B685B69029309BD000054AE07103B
:10C400000000000009B504480068044B03441B68A1
:10C410005B6C029309BD000054AE071030000000B1
:10C4200009B504480068044B03441B689B6C0293E5
:10C4300009BD000054AE07103000000009B50448E3
:10C440000068044B03441B68DB6C029309BD0000C9
:10C4500054AE07103000000009B504480068044BD2
:10C4600003441B685B6D029309BD000054AE0710C6
:10C470003000000009B504480068044B03441B6801
:10C480005B69029309BD000054AE07104C00000028
:10C4900009B504480068044B03441B689B68029379
:10C4A00009BD000054AE07102400000009B504487F
:10C4B0000068044B03441B68DB68029309BD00005D
:10C4C00054AE07102400000009B504480068044B6E
:10C4D00003441B681B69029309BD000054AE07109A
:10C4E0002400000009B504480068044B03441B689D
:10C4F0005B69029309BD000054AE071024000000E0
:10C5000009B504480068044B03441B689B69029307
:10C5100009BD000054AE07102400000009B504480E
:10C520000068044B03441B68DB69029309BD0000EB
:10C5300054AE07102400000009B504480068044BFD
:10C5400003441B681B6A029309BD000054AE071028
:10C550002400000009B504480068044B03441B682C
:10C560009B6A029309BD000054AE0710240000002E
:10C5700009B504480068044B03441B68DB6A029356
:10C5800009BD000054AE07102400000009B504489E
:10C590000068044B03441B681B6C029309BD000038
:10C5A00054AE07102400000009B504480068044B8D
:10C5B00003441B681B68029309BD000054AE0710BA
:10C5C0003400000009B504480068044B03441B68AC
:10C5D0005B68029309BD000054AE071034000000F0
:10C5E00009B504480068044B03441B689B68029328
:10C5F00009BD000054AE07103400000009B504481E
:10C600000068044B03441B681B69029309BD0000CA
:10C6100054AE07103400000009B504480068044B0C
:10C6200003441B685B69029309BD000054AE071008
:10C630003400000009B504480068044B03441B683B
:10C640009B69029309BD000054AE0710340000003E
:10C6500009B504480068044B03441B68DB69029376
:10C6600009BD000054AE07103400000009B50448AD
:10C670000068044B03441B681B6A029309BD000059
:10C6800054AE07103400000009B504480068044B9C
:10C6900003441B68DB6E029309BD000054AE071013
:10C6A0004800000009B504480068044B03441B68B7
:10C6B0001B6F029309BD000054AE07104800000034
:10C6C00009B504480068044B03441B68D3F8D43010
:10C6D000029309BD54AE07104800000009B5044894
:10C6E0000068044B03441B685B68029309BD0000AB
:10C6F00054AE07100800000009B504480068044B58
:10C7000003441B685B69029309BD000054AE071027
:10C710000800000009B504480068044B03441B6886
:10C72000DB6A029309BD000054AE07100800000048
:10C7300009B504480068044B03441B68D3F88830EB
:10C74000029309BD54AE07100800000009B5044863
:10C750000068044B03441B68D3F89430029309BD6E
:10C7600054AE07100800000009B504480068044BE7
:10C7700003441B685B68029309BD000054AE0710B8
:10C780002800000009B504480068044B03441B68F6
:10C790009B68029309BD000054AE071028000000FA
:10C7A00009B504480068044B03441B68DB68029326
:10C7B00009BD000054AE07102800000009B5044868
:10C7C0000068044B03441B681B69029309BD000009
:10C7D00054AE07102800000009B504480068044B57
:10C7E00003441B685B69029309BD000054AE071047
:10C7F0002800000009B504480068044B03441B6886
:10C800009B69029309BD000054AE07102800000088
:10C8100009B504480068044B03441B68DB690293B4
:10C8200009BD000054AE07102800000009B50448F7
:10C830000068044B03441B681B6A029309BD000097
:10C8400054AE07102800000009B504480068044BE6
:10C8500003441B681B6B029309BD000054AE071014
:10C860002800000009B504480068044B03441B6815
:10C870005B6B029309BD000054AE07102800000056
:10C8800009B504480068044B03441B681B6C029301
:10C8900009BD000054AE07102800000009B5044887
:10C8A0000068044B03441B685B6C029309BD0000E5
:10C8B00054AE07102800000009B504480068044B76
:10C8C00003441B685B6D029309BD000054AE071062
:10C8D0002800000009B504480068044B03441B68A5
:10C8E0009B6D029309BD000054AE071028000000A4
:10C8F00009B504480068044B03441B68DB6B0293D2
:10C9000009BD000054AE07102C00000009B5044812
:10C910000068044B03441B681B68029309BD0000B8
:10C9200054AE07100400000009B504480068044B29
:10C9300003441B685B68029309BD000054AE0710F6
:10C940000400000009B504480068044B03441B6858
:10C950009B68029309BD000054AE0710040000005C
:10C9600009B504480068044B03441B685B6A0293E2
:10C9700009BD000054AE07100400000009B50448CA
:10C980000068044B03441B68DB6B029309BD000085
:10C9900054AE07100400000009B504480068044BB9
:10C9A00003441B681B6C029309BD000054AE0710C2
:10C9B0000400000009B504480068044B03441B68E8
:10C9C0005B6C029309BD000054AE07100400000028
:10C9D00009B504480068044B03441B689B6D02932F
:10C9E00009BD000054AE07100400000009B504485A
:10C9F0000068044B03441B68DB6D029309BD000013
:10CA000054AE071004000000002240681146FFF7F2
:10CA10000DBF002240681146FFF724BF0022406886
:10CA2000FFF712BF0022406881F00101FFF7F0BE5E
:10CA3000002340681A461946FFF7DCBE0023406811
:10CA40001A461946FFF7C8BE002240681146FFF794
:10CA5000B5BE002240681146FFF794BE00220221B5
:10CA60004068FFF79DBE002340681A46FFF77CBE72
:10CA70000322024B5A60024A1A607047F8AE071050
:10CA8000D0FB3F020B6803604B68436013B15A68E8
:10CA900001325A60704738B5046805467CB1636856
:10CAA000013B63605BB9236820469B689847A36895
:10CAB000013BA3601BB923682046DB6898472846E2
:10CAC00038BD00000022024BC3E900229A60704783
:10CAD00000AF071002220020044B1A60044B054AE5
:10CAE000C3E900009A60FFF7F9BD00BF18AF071057
:10CAF0000CAF07100000FFFF10B504460068FFF7F9
:10CB000013FF204610BD10B50446006808B1FFF7BA
:10CB10000BFF0023C4E90133236010BD38B5044680
:10CB20000D4600680131FFF70DFF10B1C4E90005A3
:10CB3000012038BD10B50368044623B143688B4219
:10CB400001D3012010BD2046FFF7E8FF0028F9D0EF
:10CB5000A368002BF5D122681370F2E737B50D46B4
:10CB6000114601920446FFF7E5FF019A28B92046D5
:10CB7000FFF7C9FF204603B030BD2946A2602068F8
:10CB800001F0A4FE00212268A368D154F2E738B571
:10CB9000054600680C4670B16A688B689A4208D3F3
:10CBA000096831B101F007FFA368AB600023A360FF
:10CBB00038BDFFF7B9FE23682B6063686B60A3681C
:10CBC000AB600023C4E90033F1E7002310B504464D
:10CBD000C0E9003383600373FFF7D9FF204610BD1F
:10CBE000884210B5044605D00B682BB18A681946F7
:10CBF000FFF7B4FF204610BDFFF785FFFAE70023DB
:10CC000010B50446C0E9003383600373FFF7E8FF03
:10CC1000204610BD10B543680446013B436063B92C
:10CC200003689B689847A368013BA3602BB92368FE
:10CC30002046BDE81040DB68184710BD70B50446BB
:10CC4000D0E9005305EB0316AE4204D02846FFF7A7
:10CC500053FF1035F8E72068FFF766FE204670BDE9
:10CC6000002302480360FFF7CDBB00BF1CAF0710D5
:10CC700010B5044680680368DB689847E368184489
:10CC8000E06010BDF8B506460D4600248F18BD4281
:10CC90000CD0336830469B6815F8011B9847031E7B
:10CCA00001DB1C44F3E7002C08BF1C462046F8BDFE
:10CCB000704710B504461021FFF72DFA204610BD2D
:10CCC00013B50446084659B10191FFF7FBF9024636
:10CCD000204623680199DB6802B0BDE81040184780
:10CCE00002B010BD03689B68184738B50D21054692
:10CCF000FFF7F8FF0A2104462846FFF7F3FF204418
:10CD000038BD38B50546FFF7EDFF04462846FFF766
:10CD1000ECFF204438BD0023012A98BF0A2230B519
:10CD20008BB08DF8243009AC0D46B1FBF2F101FB5C
:10CD3000125303F0FF03092B94BF30333733DBB2B8
:10CD4000AA4204F8013DEFD92146FFF7B9FF0BB025
:10CD500030BD10B50446FFF747FBE060236820466E
:10CD60005B699847002808DAFFF73EFBE368C01AC2
:10CD7000A3689842F2D34FF0FF3010BD2DE9F04187
:10CD800007460C460D468E18B542A5EB040807D0A1
:10CD90003846FFF7DEFF031E02DB05F8013BF3E731
:10CDA0004046BDE8F0817047084611B10B685B68EA
:10CDB0001847704770477047704738B504460D46AE
:10CDC00000682E2101F0EDFD2368C31A2B6023B10A
:10CDD000037803B1013023682060184638BD10B5D0
:10CDE00004460421FFF797F9204610BD10B504460C
:10CDF0000421FFF790F9204610BDFFF71FBB08B5CF
:10CE0000FFF756F9B0FA80F0400908BD704710B539
:10CE10000C4601F003F9844205D101F0FFF8BDE8AA
:10CE2000104001F0EFB801F0AFFC844205D101F0F1
:10CE3000ABFCBDE8104001F046BB2CB12368204696
:10CE4000BDE810405B68184710BD13B5044608469E
:10CE50000191FFF737F902462046019902B0BDE87B
:10CE6000104001F0C7BA13B5044608460191FFF718
:10CE700029F90246204623680199DB6802B0BDE823
:10CE80001040184707B503688DF807100122DB68CA
:10CE90000DF10701984703B05DF804FB2DE9F74F4A
:10CEA0004FF0140AD0E90084174645460AFB04F403
:10CEB0000093174BA4105C43002C21DD66100AFB85
:10CEC00006F005EB0009B9F804B03A465F4528BF03
:10CED0005A462858019101F076FD00284FF00103D1
:10CEE00001990BD15F4503D1009A13703446E3E7F3
:10CEF000FCD9A61B09F11405013EF7E7F9DBF5E7BC
:10CF0000A5EB08050248AD10684303B0BDE8F08FFB
:10CF1000CDCCCCCC7FB50369057E019103B3F9B1CB
:10CF2000002600F10C04039603A901A8FFF745FFB2
:10CF30000146A8B10DF10B032046039A8DF80B6052
:10CF4000FFF7ACFF9DF80B3053B12368142404FBAA
:10CF50000034B4F906300834002BA8BFDDB2E3E793
:10CF6000284604B070BD0EB4F0B58CB000AF07F128
:10CF7000440555F8042B04462B46202107F11000E8
:10CF80007A60FD60FFF7ECFC1F287A681AD900F17F
:10CF9000080323F007036E46ADEB030D411C2B463F
:10CFA0006846FD60FFF7DCFC021E04DD236869466D
:10CFB0002046DB689847B5463037BD46BDE8F040AF
:10CFC00003B070470028F7D023680246DB6820468C
:10CFD00007F110019847EFE710B5084CD4E88F3FF0
:10CFE000DB0709D42046FFF7F3FC28B12046FFF702
:10CFF000FDFC034801F05CFC024810BD24AF0710A3
:10D00000F5DD3F0258AE071010B5084CD4E88F3F4D
:10D01000DB0709D42046FFF7DBFC28B12046FFF7E9
:10D02000E5FC034801F044FC024810BD28AF07109E
:10D030004DDE3F025CAE071038B500250446C0E95E
:10D040000055C0E904558560856140F8245FFFF70D
:10D05000D9F9FFF7C1FFE061FFF7D6FF2573206222
:10D06000204638BD10B50A4CD4E88F3FDB070CD4FE
:10D070002046FFF7ADFC40B10648FFF7DDFF204634
:10D08000FFF7B4FC044801F013FC024810BD00BFD8
:10D0900020AF071030AF071019E63F020023024A05
:10D0A00002490348FFF7FEBA01E43F028DE33F0265
:10D0B0000DE33F0200231A4619461846FFF7F2BA5D
:10D0C00037B504468D686846FFF7DCFC6A4629469A
:10D0D000204601F0AFF801A8FFF7DDFC204603B0C1
:10D0E00030BD37B50446CD686846FFF7CBFC6A46CD
:10D0F0002946204601F07AF801A8FFF7CCFC20462B
:10D1000003B030BD37B504460D696846FFF7BAFC79
:10D110006A462946204601F012F801A8FFF7BBFC39
:10D12000204603B030BD000070B58AB00D46014600
:10D1300004A8FFF7C5FF144E04A801F093F8E8B166
:10D14000684604A9FFF7CDFF31460298FFF757FE66
:10D15000044610B12C1E18BF012401A8FFF79BFC48
:10D16000002CE9D0684604A9FFF7CCFF684601F01F
:10D170001CF8286001A8FFF78EFCDDE705A8FFF783
:10D180008AFC0AB070BD00BF24FC3F0237B50C46D4
:10D19000134920461546FEF78BFF50B900F03EFFBD
:10D1A0004FF4165100F02AFF03B0BDE8304000F004
:10D1B00035BF20460B49FEF77BFF78B94FF4165375
:10D1C00001A928460193FFF7AFFF01F0DDFA0199AD
:10D1D00001F076F901F0D8FA03B030BD0020FBE78A
:10D1E00029FC3F0230FC3F0270B51426D0E9005301
:10D1F000044606FB0356AE4205D005F10800FFF7D2
:10D20000F3FF1435F7E72068FFF78EFB204670BD6B
:10D2100010B504460C30FFF7E7FF2046FFF70EFD80
:10D22000204610BD10B50446034B40F8043BFFF701
:10D23000EFFF204610BD00BFA0FB3F0210B5044623
:10D24000FFF7F0FF20462421FEF765FF204610BDC2
:10D2500010B50446024B0360FFF7E4FF204610BD03
:10D26000BCFC3F0210B50446FFF7F2FF2046242124
:10D27000FEF751FF204610BD0A6810B502604A68EB
:10D2800042600022C0E9022202618C688A608460E8
:10D29000CC68CA60C4600C690A61046110BD0022D8
:10D2A000C0E90022826010B50C680A6004604C6816
:10D2B0004A6044608C688A60846010BD10B5044682
:10D2C00003681868FFF7C8F8204610BD2DE9F04F35
:10D2D00087B003931C4B80465B688946C3F3080301
:10D2E00016466BB9FFF7BEFE044600F12403406A00
:10D2F0000593FFF782FD237B2BB105A8FFF7DEFF27
:10D3000007B0BDE8F08F01235FFA89F92373D4E9F0
:10D31000005305EB830AAA4512D055F8047B314629
:10D32000381DFFF7F7FD8145F5D3039A3B6800925E
:10D33000D3F808B04A46334641463846D847EAE76C
:10D3400000232373D9E700BF00ED00E02DE9F74F7C
:10D350009B461A4B80465B688946C3F30803164612
:10D360006BB9FFF77FFE044600F12403406A019386
:10D37000FFF743FD237B2BB101A8FFF79FFF03B00D
:10D38000BDE8F08F0123F6B22373D4E9005305EB17
:10D39000830A55450ED055F8047B5946381DFFF7D2
:10D3A000B9FD8642F5D33B684A4641463846DB68BC
:10D3B0009847EEE700232373DEE700BF00ED00E0AF
:10D3C0002DE9F341164B05465B680F46C3F308038E
:10D3D0001BBBFFF747FE044600F12403406A01939C
:10D3E000FFF70BFDD4E90063462406EB8308B04544
:10D3F00009D101A8FFF762FFA542B4BF00200120B8
:10D4000002B0BDE8F08156F8040B39460430FFF74E
:10D4100081FD8442A8BF0446E9E70020F0E700BF91
:10D4200000ED00E0F8B5D0E901539D4204460E46F8
:10D430000DDB6F1C002F006804DDB900FFF782FAD6
:10D4400018B9F8BDFFF770FA00202060A7602768C0
:10D45000626807EB85019200A2EB8502081D01F0CE
:10D4600042FA47F825606368012001336360E8E70A
:10D4700037B5044600F12403406A01930D46FFF7D7
:10D48000BCFCD4E9003203EB8202934219460AD075
:10D4900009680433A942F8D101A8FFF70FFF00255E
:10D4A000284603B030BD29462046FFF7BBFF05469E
:10D4B0000028F1D06368012B01D1FFF7EFFD01A82F
:10D4C000FFF7FCFEECE70B4670B50446D0E900021E
:10D4D00000EB820282420FD001461D6851F8046BB6
:10D4E000AE4207D1521A01F0FEF901206368013BF8
:10D4F000636070BD0846EDE70020FAE71FB50446FB
:10D5000000F12403406A01910393FFF776FC204663
:10D5100001A9FFF7D8FF18B163680BB9FFF7CAFD7F
:10D5200003A8FFF7CBFE04B010BD182370B5044666
:10D53000D0E9045603FB0656AE4215D0204605F14D
:10D540001001FFF7C0FF63680BB9FFF7B3FDE06997
:10D5500029690368DB689847696919B1206A03681B
:10D56000DB6898471835E7E71826D4E9045306FB2B
:10D570000356AE4204D02846FFF7BEFA1835F8E746
:10D580000023636170BD73B50446FFF793FD04F19A
:10D590002403606A0193FFF730FC2046FFF7C5FFC4
:10D5A00001A8FFF78BFE606A08B1FEF739FFD4E9E6
:10D5B0000453182606FB0356AE4204D02846FFF754
:10D5C0009BFA1835F8E72069FFF7AEF92068FFF7F6
:10D5D000ABF9204602B070BD0148FFF7D4BF00BFD1
:10D5E00030AF07108842F8B504460D46164615D9E7
:10D5F000904214D2A2F11406751AA1F114072C441A
:10D60000B7421AD01CB131462046FFF735FE06F16D
:10D610000800FFF7E9FD143E143CF1E70DD0B542D8
:10D620000BD01CB129462046FFF726FE05F1080065
:10D63000FFF7DAFD14351434F1E7F8BD8842F8B588
:10D6400004460D46164614D9904213D2A2F1100694
:10D65000751AA1F110072C44B74218D01CB13146FD
:10D660002046FFF7B2FA3046FFF746FA103E103C6C
:10D67000F2E70CD0B5420AD01CB129462046FFF78C
:10D68000A4FA2846FFF738FA10351034F2E7F8BD4F
:10D6900070B50E1E054611DD3001FFF737F904465F
:10D6A00058B1D5E9001201EB0212FFF7C7FF286855
:10D6B000FFF73AF901202C60AE6070BD0024F6E758
:10D6C0002DE9F04F90460023462295B00391D8F8FB
:10D6D000041004469942C0E90033C0E90233C0E9AE
:10D6E0000433CDE9083302760A9323DCD8E90057E6
:10D6F000142303FB0757AF423BD029460BA8FFF783
:10D7000064FA0BA90FA8099EFFF75FFADDE9091378
:10D7100099421BDA089B099A03EB0616314603EB84
:10D72000021206F11000FFF789FFEEB9099B0133E1
:10D73000099311E008A8FFF7ABFF0028D6D108A88D
:10D74000FFF77CFA204615B0BDE8F08F013108A83C
:10D75000FFF79EFF0028DDD10FA8FFF7CDF90BA83A
:10D76000FFF7CAF91435C6E730460FA9FFF72DFABF
:10D77000DCE700264FF01409CDE90B660D96DDE9D4
:10D7800008239E427CDA3301D35806930BB9013645
:10D79000F5E70023079309FB06F30BAD029307A9F6
:10D7A00006A8FFF70AFB82460028F0D04FF00003DE
:10D7B00001468DF817302846079A0DF11703FFF739
:10D7C0006DFB9DF817700190002F4AD1BDF81C30F9
:10D7D000CDE91177ADF840304FF6FF73CDF83CA09E
:10D7E000ADF842301397D5E90132934217DB03F1CC
:10D7F000010ABAF1000F30DD09FB0AF0FFF786F8E5
:10D80000834660B3D5E9001209FB0212FFF7EAFE76
:10D810002868FFF789F8C5F800B0C5F808A02B689C
:10D82000019A09FB023A6A68514609FB02320AF181
:10D830001400FFF7D7FEBAF1000F03D050460FA92E
:10D84000FFF71AFD6B6801336B6011A8FFF7CCFC82
:10D850003FB10BA8FFF7C8FC71E7BB46D8E701272B
:10D86000F3E7019B2D6809FB0355069B1B782BB939
:10D87000D8F80030029A13441B7CEB8008358EE701
:10D880002168226062686360A36809920A9A0A9319
:10D89000E368A2600B9A0B932369E2600C9A0C93E5
:10D8A000636922610D9A0D93039B0891626123764F
:10D8B000CFE70000F0B504462646174687B00D4670
:10D8C00068461946FEF7CFFC0B4B694646F8043B09
:10D8D00003A8FEF7C8FC394603AA3046FFF7F0FE5E
:10D8E00003A8FEF77FFC6846FEF77CFC2046034B4E
:10D8F0002562236007B0F0BDA0FB3F02A4FC3F02FD
:10D90000F0B50F4685B038461C4916461D460A9CA0
:10D91000FEF7CEFBC0B9A4B1294601A8FFF7BFFCB2
:10D920002420174900F0C0FF054630B101AB324654
:10D930002146FFF7BFFF134B2B6001A8FEF752FCF7
:10D940002C46204605B0F0BD38460F49FEF7B0FB27
:10D9500090B9002CF5D0294601A8FFF7A0FC24209F
:10D96000074900F0A1FF05460028E6D032462146CF
:10D9700001ABFFF79FFFE0E70024E2E738FC3F023E
:10D9800034FE3F02BCFC3F023CFC3F02014B024A1A
:10D990001A6070472CAF07104DFC3F022DE9F0478D
:10D9A000089DD0F8209004460E461746984600F091
:10D9B00035FB81454DD02B79190704D520466A697E
:10D9C0005449FFF7D0FAB8F1000F0DD05B21204683
:10D9D000FFF758FA41462046FFF745FA236802222E
:10D9E0002046DB684C4998472B79DA0724D5D5F8CF
:10D9F00008802F21404600F0FAFF08B100F101082D
:10DA000041462046FFF72FFA2B799B0708D53A218C
:10DA10002046FFF737FA2046EA684049FFF7A3FAA5
:10DA20002A79236812F0040F20464FF00202DB68C7
:10DA300014BF3B493B4998472B7958071DD52969A5
:10DA40000B461A4613F8010B60B1202808D119467D
:10DA5000F7E7354800F0C1FD0028ACD0BDE8F087FD
:10DA60002828EED12368521A2046DB68984723689D
:10DA700004222046DB682D49984700213846FEF7EE
:10DA800003FE01462046FFF7EEF9236802222046F6
:10DA9000DB68244998471EB131462046FFF7E3F979
:10DAA0002B7913F0300F2CD023682149DB68022238
:10DAB000204698472B79D9060AD5236807222046A5
:10DAC0001C49DB6898472046AA691B49FFF74BFAB7
:10DAD0002B799A0611D5DB0605D52368022220464C
:10DAE000DB680F4998472368204614490A22DB68FF
:10DAF00098472046E969FFF7B6F95D212046FFF710
:10DB0000C1F923682046BDE8F0470222DB680C49D2
:10DB1000184700BF51FC3F0258FC3F025BFC3F022C
:10DB20005EFC3F0263FC3F02A8AF071061FC3F02AE
:10DB300066FC3F0269FC3F0271FC3F0274FC3F023D
:10DB40007FFC3F022DE9F0410446076A0D46164668
:10DB500000F064FA874207D0206A324603682946FB
:10DB6000BDE8F041DB681847034800F036FD0028A7
:10DB7000F2D0BDE8F08100BFA8AF07102DE9F04357
:10DB800085B0D0F8209005460F4690461E460C9C66
:10DB900000F044FA814505D1494800F01EFD0028F7
:10DBA00040F08A804FF000092B6A464A6846CDE96A
:10DBB000023900928DF8049000F07DFB4946404602
:10DBC000FEF762FD804640490122684600F002FCF3
:10DBD0004146FFF73AF93FB13C490122684600F05F
:10DBE000F9FB3946FFF731F93EB139490122684660
:10DBF00000F0F0FB3146FFF728F92379DF070ED557
:10DC0000A6682F21304600F0F2FE00B1461C3149D3
:10DC10000122684600F0DEFB3146FFF716F9237952
:10DC20009E0707D52C490222684600F0D3FBE16825
:10DC300000F04EFB2379580714D5266933461F465A
:10DC400013F8012B2AB1202A01D11E46F7E7282A12
:10DC5000F5D102222149684600F0BCFB3146BA1BCF
:10DC600000F0C8FB2379190707D51D490122684632
:10DC700000F0B0FB616900F03DFB2379DA0607D5BF
:10DC800018490422684600F0A5FBA16900F020FBBA
:10DC900023799B0607D514490622684600F09AFBB3
:10DCA000E169FFF7D2F8684600F0EFFA286A02222D
:10DCB00003680E49DB68984705B0BDE8F08300BFF4
:10DCC000A8AF071014FC3F022EFC3F0282FC3F026B
:10DCD000C7FE3F0284FC3F0286FC3F0289FC3F02F4
:10DCE0008CFC3F028EFC3F0293FC3F027FFC3F0214
:10DCF000024B1A68024B1A60704700BF60AE0710F3
:10DD000058AF07100021FEF7F7BC00000022014BBE
:10DD10009A6070475CAF0710014B1860704700BFF6
:10DD200064AE071008B50F4B43B100F077F90368F4
:10DD30001B699847002801DD00E000BF0A4B43B192
:10DD400000F022FD03681B699847002801DD00E010
:10DD500000BF064B0BB100F05DFD054B0BB100F0B1
:10DD60008FFD08BD00000000000000000000000062
:10DD70000000000008B5FFF7D5FFFEF735FB014BAB
:10DD8000186008BDF8AF07100548064A08B5121A12
:10DD9000054900F09BFD054B054A1A6008BD00BF10
:10DDA00000B4071004B407102CF05F0800B407108B
:10DDB0001E1C279A002307B51A466FF077010093BF
:10DDC000FEF7C4FC03B05DF804FB000007B5438810
:10DDD0000A2B08D0502B0BD1094B1B684BB103B059
:10DDE0005DF804EB1847FFF7E5FF03B05DF804FBAF
:10DDF00000231A466FF077010093FEF7A7FCF4E7C3
:10DE000070AF0710002110B51148FEF7D3FD114B7C
:10DE10001A68114B9A420CBF012200220F4B1A7054
:10DE200001D0FFF7B1FFFEF7D1FA044600F07EFD06
:10DE30000B4B13B1204600E000BF00210848FEF75D
:10DE400057FDBDE8104000210648FEF771BC00BF39
:10DE500059ED3F0200B407101E1C279A6CAF071043
:10DE6000000000000DEE3F02704710B50446182177
:10DE7000FEF751F9204610BDF0B5037D0E46062B86
:10DE80004FF000048DB000F1040712D000F1080536
:10DE900015F8011D0A223046FEF73DFFAF4204444B
:10DEA00019D0002CF4D02E213046FEF71BFF04447D
:10DEB000EEE72F236A4639460A208DF80040FEF728
:10DEC000D9FA6846FEF7FEF83368024669463046DE
:10DED000DB689847044620460DB0F0BD10B50446F7
:10DEE000044B1122002140F8043B00F016FD2046AF
:10DEF00010BD00BF20FD3F020346074A10B543F89E
:10DF0000042B01F1100251F8044B914243F8044BE9
:10DF1000F9D10A781A7010BD20FD3F0210B59DF8A6
:10DF2000084044EA032343EA0242042342EA01612F
:10DF30004160037510BD000007B5064B0360CB7848
:10DF400000938B784A780978FFF7E8FF03B05DF813
:10DF500004FB00BF20FD3F024174704770477047CB
:10DF600008B50021007CFEF765FB40EAE07008BDC3
:10DF700008B50121007CFEF75DFB40EAE07008BDBA
:10DF800008B5007CFEF748FB20EAE07008BD08B544
:10DF9000007CFEF733FB20EAE07008BD13B50446B1
:10DFA000007C0191FEF738FB0028019901DC607CC0
:10DFB00020B1207CFEF74CFB20EAE07002B010BDDF
:10DFC000007CFEF753BB10B504461421FEF7A3F8FE
:10DFD000204610BD10B54FF47A7304460846002160
:10DFE000C4E90113044B20742360012311466374B8
:10DFF000FEF7DAFA204610BD34FD3F020022007C15
:10E00000FEF7E0BA007CFEF7EBBA10B50446142226
:10E01000002100F082FC204610BD000010B588B041
:10E0200003A8FFF7F2FF0C4CD4E88F1F11F0010199
:10E030000FD120460191FEF7CBFC019948B103AA0C
:10E040000648FFF7C7FF2046FEF7D0FC044800F063
:10E050002FFC024808B010BD74AF071078AF07104E
:10E060009DEF3F02012200F1100313F8101C184627
:10E07000012908D153F8041C02EB4102013A03F1D3
:10E080001003F2D17047022904BF53F8041C521840
:10E09000F4E70EB4F0B588B0102100AF07F13405F5
:10E0A00055F8042B04462B4678187A60FD60FEF77D
:10E0B00057FC0F287A681AD900F1080323F00703E8
:10E0C0006E46ADEB030D411C2B466846FD60FEF726
:10E0D00047FC021E04DD2368694620469B6898477A
:10E0E000B5462037BD46BDE8F04003B07047002874
:10E0F000F7D0236802469B68204607F11001984735
:10E10000EFE738B50B68044603604D6843689D42ED
:10E1100008D015B16B6801336B60606808B1FEF719
:10E1200079FD656038BD07B503688DF807100122D9
:10E130009B680DF10701984703B05DF804FB0B469F
:10E140001146002210B50446C0E9002283600BB9D5
:10E15000204610BDFFF7D5FFFAE78368EBB11A78C8
:10E16000032A1AD8DFE802F00417021B05207047C3
:10E1700002685B685268D05C2D2812D0A0F1300391
:10E18000092B0ED974280ED066280CD0A0F16E038E
:10E1900058425841704706207047002070470420BD
:10E1A0007047032070470220704710B50446FFF700
:10E1B000D4FF02280ED0C31EDBB2012B14D8226874
:10E1C000A36850685B680A22BDE81040002118442B
:10E1D00000F0A4BC2268A36852685B68D05CA0F120
:10E1E00074035842584110BD0020FCE738B50023A5
:10E1F0000446C0E900330E48C4E90203A9B10B7814
:10E20000032B06D08BB9136858684B68C35C6E2B20
:10E2100007D013684D6858688B6828445B1BA06062
:10E22000E36011462046FFF76CFF204638BD00BF73
:10E2300081FC3F0238B500250B4604461146C0E973
:10E240000055C0E90255C0E904554BB11A78012ABE
:10E2500006D103F11002DB6882604361FFF751FFD2
:10E26000204638BD10B54369044663B18068013B60
:10E27000E0601030A0602061636113B1FFF7F2FE2F
:10E28000A060012000E0184610BD10B57D210446B5
:10E29000FFF749FF01232046237110BD08B503791C
:10E2A000012B02D0022B04D008BD2C21FFF73BFF2D
:10E2B000FAE73A21FAE710B50446FFF7EFFF2046E8
:10E2C0007B21FFF730FF00232046237110BD0000A3
:10E2D00013B504460191FFF7E1FF23682046DB6890
:10E2E000019A0349984701232046237102B010BDCB
:10E2F0005BFC3F0213B504460191FFF7CFFF236893
:10E300002046DB68019A0349984701232046237180
:10E3100002B010BD60FD3F022DE9F0470D4690466A
:10E32000222104462F46FFF7FEFEDFF8A490A84402
:10E330004745BA463DD017F8016B222E06D05C2E19
:10E3400004D0304600F0BAFA0028F1D123682946FB
:10E3500020469B68AAEB050298475C212046FFF700
:10E36000E2FE0D2E0AD8072E1CD9A6F10803052BB4
:10E3700018D8DFE803F00D0F11171315222E01D066
:10E380005C2E0FD131462046FFF7CDFE3D46CFE74C
:10E390006221F8E77421F6E76E21F4E76621F2E7DF
:10E3A0007221F0E72368324649462046DB689847E9
:10E3B000ECE7BD4205D02368294620469B687A1BBE
:10E3C000984722212046FFF7AEFEBDE8F08700BF48
:10E3D00063FD3F0213B50446CDE90021FFF75EFF60
:10E3E000DDE900212046FFF797FF02232046237135
:10E3F00002B010BD13B50446CDE90021FFF74EFF72
:10E40000DDE900212046FFF787FF01232046237125
:10E4100002B010BD70474174704708B5007CFEF72C
:10E4200099F820EAE07008BD08B5007CFEF74CF8CA
:10E4300020EAE07008BD08B5007CFEF761F840EA0C
:10E44000E07008BD08B5007CFEF74CF840EAE070CB
:10E4500008BD007CFEF762B837B5457C04462DB197
:10E46000207C03B0BDE83040FEF720B8007C01916D
:10E47000FEF770F800280199F2DC284603B030BDA1
:10E4800010B504461421FDF746FE204610BD0000DD
:10E4900010B54FF47A730446084611460022C4E9C9
:10E4A0000123044B2074236001236374FEF76EF88C
:10E4B000204610BD74FD3F020023007CFEF758B8D3
:10E4C0000022FFF7F9BF007CFDF7E2BF007CFEF7FA
:10E4D00033B80000FF210022044B0120C3E90012E1
:10E4E00064211A61C3E90201704700BF8CAF0710B5
:10E4F000002240681146FEF761B9002240681146CB
:10E50000FEF794B9002240681146FEF7ABB900222D
:10E510004068FEF799B90022406881F00101FEF7DA
:10E5200077B9002340681A461946FEF763B90023FD
:10E5300040681A461946FEF74FB900224068114656
:10E54000FEF720B9002202214068FEF729B9002316
:10E5500040681A46FEF708B90422024B5A60024A84
:10E560001A607047A0AF0710A8FD3F020023406863
:10E570001A46FEF7F9B8002202214068FEF710B9EA
:10E58000002240681146FEF7FDB80022406811469F
:10E59000FEF714B9002340681A461946FEF71CB965
:10E5A000002340681A461946FEF724B90021406846
:10E5B000FEF766B900214068FEF770B90022406896
:10E5C00081F00101FEF724B900224068FEF73CB952
:10E5D000002240681146FEF745B900224068114606
:10E5E000FEF724B900214068FEF774B92DE9F04325
:10E5F0000026984699B00D4614460746FFF76EFC74
:10E600001C22314611A8039600F087F9B8F1000FDB
:10E610002CD1402368681093049618B104A9C0B2A5
:10E62000FDF7C6FE049B20460093002103AB10AA11
:10E63000FDF7B0FE044600284DD10246012168686E
:10E64000FEF7BCF80221804622466868FEF7B6F85D
:10E6500021468146039E002E3DD000293BD17368A0
:10E66000022B05D00A2B13D0F669F4E71D4BD1E736
:10E67000B8F1000FF8D071690AA804313C1D0BAD48
:10E68000FFF75AFC0FCD0FC42B6841462370EBE710
:10E69000B9F1000FE8D0102205A8746900F03DF927
:10E6A000062305AD8DF8243004F1080318342A46FA
:10E6B00018685968083303C2A3421546F7D105A963
:10E6C0000AA83C1D0BADFFF717FC0FCD0FC42B683C
:10E6D00049462370C8E70398FDF74EFE384619B047
:10E6E000BDE8F08340000040033802289ABF024B87
:10E6F00053F8200001487047E4FD3F02A8AF07101F
:10E7000008B500224068FEF7D7F8BDE80840FFF7DB
:10E71000EBBF0000024B034A1A6000225A607047A8
:10E72000A8AF0710F8FD3F027047000038B5142568
:10E7300004462A46002100F0F0F8258040250749CC
:10E7400028462581258200F0B1F8044960602846FA
:10E7500000F0ACF8E060204638BD00BF34FE3F0258
:10E760007047704710B50446FFF7E0FF204610BD24
:10E7700010B50446FFF7DAFF204610BD10B5044679
:10E78000FFF7D4FF204610BD30B50E4D87B0D5E859
:10E790008F1F11F0010411D12846FEF719F968B155
:10E7A00001A8FFF7DFFF214601AA0748FFF770FE27
:10E7B0002846FEF71BF9054800F07AF8024807B032
:10E7C00030BD00BFB0AF0710BCAF071069F73F0204
:10E7D00010B50D4C86B0D4E88F3FDB0711D420462E
:10E7E000FEF7F6F868B101A8FFF7C2FF012101AA00
:10E7F0000648FFF74DFE2046FEF7F8F8044800F003
:10E8000057F8024806B010BDB4AF0710D0AF0710DC
:10E81000A3F73F0210B5FFF7DBFF074B044653B1E8
:10E82000FFF754FE38B1236820461B69984700283B
:10E8300001DD00E000BF10BD0000000010B50D4C70
:10E8400086B0D4E88F3FDB0711D42046FEF7C0F82E
:10E8500068B101A8FFF792FF022101AA0648FFF75D
:10E8600017FE2046FEF7C2F8044800F021F80248DF
:10E8700006B010BDB8AF0710E4AF0710A1F73F0214
:10E8800010B5FFF7DBFF074B044653B1FFF71EFE41
:10E8900038B1236820461B699847002801DD00E055
:10E8A00000BF10BD00000000FDF731BCFDF731BC1A
:10E8B000002301461A461846FDF748BC024B18448F
:10E8C000407800F097007047C9FE3F020A44431E9B
:10E8D000914200D1704710B511F8014B914203F8F5
:10E8E000014FF9D110BD884210B501EB020402D9E5
:10E8F0008442234607D8431EA14208D011F8012BB9
:10E9000003F8012FF8E7024401468A4200D110BD06
:10E9100013F8014D02F8014DF7E702440346934214
:10E9200000D1704703F8011BF9E7000038B5104B20
:10E9300004461D68AB6BB3B91820FDF7E7FF02462C
:10E94000A86320B90B4B42210B48FEF725F80B4971
:10E950000B4BC0E900130B4B002183600B23838119
:10E960000120C2E90401AB6B00221C615A6138BD71
:10E9700064AE071035FE3F024CFE3F020E33CDABB6
:10E9800034126DE6ECDE0500C9B2034610F8012B27
:10E990001AB18A42F9D118467047002918BF0023DE
:10E9A000F9E710B50446FFF7EFFF18B92046FDF769
:10E9B00089FB204410BD034611F8012B03F8012BFD
:10E9C000002AF9D1704710B57AB10346013984188D
:10E9D00013F8010B11F8012F904201D1A34201D18C
:10E9E000801A10BD0028F3D1FAE71046F9E738B5D0
:10E9F00003460C4669B9BDE83840FFF7C5BF431C64
:10EA0000054621461846FFF7BFFF0028F7D12846E4
:10EA100038BD0025F5E70000012B2DE9F04701D0B6
:10EA2000242B06D9FDF7AAFF162303600020BDE8BA
:10EA3000F0870D46DFF8E0C02E4615F8014B14F8BC
:10EA40000C7017F00807F7D12D2C32D12C78012744
:10EA5000B51C002B5BD0102B09D1302C07D12C78A2
:10EA600004F0DF04582C4DD16C781023023507F1E7
:10EA700000484FF0000C08F1FF386646B8FBF3F988
:10EA800003FB198AA4F1300EBEF1090F16D87446A3
:10EA9000A34224DDBCF1000F1EDBB1451CD301D124
:10EAA000A24519DB06FB03464FF0010C15F8014B9C
:10EAB000E8E72B2C04BF2C78B51CCAE7A4F1410E63
:10EAC000BEF1190F01D8373CE2E7A4F1610EBEF1A7
:10EAD000190F04D8573CDBE74FF0FF3CE6E7BCF1E9
:10EAE000000F05DA22234646036042B930469EE70E
:10EAF00007B17642002AF9D0BCF1000F00D0691EA0
:10EB00001160F3E73024002BB1D10823AFE7302C9C
:10EB1000A5D00A23ABE700BFCAFE3F0213460A4650
:10EB2000014602480068FFF777BF00BF64AE0710D8
:10EB300015D13F023DD13F0241D13F02000000000C
:10EB400043616C6C206F6E207075726520766972FF
:10EB50007475616C000000000000000000000000FF
:10EB600000000000000000005DD13F028FD13F0295
:10EB7000000000000000000091D13F02C5D13F021B
:10EB8000DDE93F0285EB3F020000000000000000CD
:10EB9000A7DA3F029DDA3F0293DA3F0289DA3F02A9
:10EBA0007DDA3F0271DA3F02EDF53F02F5F53F02F3
:10EBB00065DA3F025DDA3F0253DA3F0249DA3F028B
:10EBC00041F73F0225F63F022DF63F02000000000C
:10EBD00000000000F1DC3F02F3DC3F02B1DC3F0249
:10EBE000D3F03F02626175640053657269616C0025
:10EBF00053657269616C31004A534F4E53747265AC
:10EC0000616D4C6F6748616E646C65720061707015
:10EC100000253031307520005D20002564002C2057
:10EC20000028293A2000205B00636F6465203D20A6
:10EC30000025690064657461696C73203D20000DD6
:10EC40000A006D0066006C6E00666E007400636FF3
:10EC500064650064657461696C0000000000000078
:10EC60000000000065E23F027DE23F02DDE93F0275
:10EC700085EB3F02000000000000000091E23F022F
:10EC8000A5E23F02BDEB3F02E7DD3F0200000000CE
:10EC900000000000F9DD3F021FDE3F0241E93F02B4
:10ECA000E9DD3F020000000000000000F7DD3F0248
:10ECB0002DDE3F02CDE13F024FDE3F0225592D25DB
:10ECC0006D2D25645425483A254D3A2553257A0063
:10ECD00061736374696D650000000000000000004E
:10ECE000B9EE3F02A9EE3F02ABEE3F02000000008A
:10ECF000000000009FEF3F0207F03F02DDEF3F0200
:10ED0000C5DC3F02CFEF3F02A1EF3F02B1EF3F0270
:10ED100001F03F02BDDD3F02C1EF3F0299EF3F022C
:10ED200025750075253034780000000000000000D3
:10ED30000000000055F43F02C1F43F0299F43F0285
:10ED4000C5DC3F0269F43F0285F43F0277F43F02DD
:10ED500093F43F02BDDD3F0257F43F025BF43F02F4
:10ED600000000000000000008FF53F0285F53F0223
:10ED70007BF53F0231F53F026FF53F0263F53F023D
:10ED8000EDF53F02F5F53F0257F53F024FF53F0223
:10ED900045F53F023BF53F0241F73F0225F63F02B2
:10EDA0002DF63F02F8AE0710A0AF0710A8AF07106E
:10EDB0000000000000000000ADF53F02B7F53F0283
:10EDC000C1F53F02CBF53F02D5F53F02E1F53F0229
:10EDD000EDF53F02F5F53F02FDF53F0209F63F0272
:10EDE00011F63F021BF63F0241F73F0225F63F02B4
:10EDF0002DF63F02005245454E54206D616C6C6FFC
:10EE00006320737563636565646564002F6D6E745C
:10EE10002F776F726B73706163652F776F726B738F
:10EE2000706163652F4743432D31302D70697065E4
:10EE30006C696E652F6A656E6B696E732D4743430F
:10EE40002D31302D706970656C696E652D34385FB9
:10EE500032303230313132345F3136303631383061
:10EE60003634312F7372632F6E65776C69622F6E43
:10EE700065776C69622F6C6962632F7374646C6967
:10EE8000622F72616E642E630000202020202020FB
:10EE9000202020282828282820202020202020204A
:10EEA000202020202020202020208810101010104A
:10EEB000101010101010101010100404040404049A
:10EEC000040404041010101010101041414141417D
:10EED00041010101010101010101010101010101E2
:10EEE0000101010101101010101010424242424273
:10EEF00042020202020202020202020202020202B2
:10EF00000202020202101010102000000000000097
:10EF100000000000000000000000000000000000F1
:10EF200000000000000000000000000000000000E1
:10EF300000000000000000000000000000000000D1
:10EF400000000000000000000000000000000000C1
:10EF500000000000000000000000000000000000B1
:10EF600000000000000000000000000000000000A1
:10EF70000000000000000000000000000000000091
:10EF80000000000000000000000000000DD33F0260
:10EF9000B1DA3F0205DB3F0215DB3F02A1DC3F0295
:10EFA000CDE93F0231ED3F024DED3F0215F53F0245
:08EFB00099F53F0255F73F02FD
:10EFB80000000002D4FC3F02ECFC3F0210FD3F02BF
:10EFC80068AE07100000000000000000000000000C
:10EFD8000000000000000000000000000000000029
:10EFE8000000000000000000000000000000000019
:10EFF8000000000000000000000000000000000009
:10F0080000000000000000000000000000000000F8
:10F0180000000000000000000000000000000000E8
:04F0280000000000E4
:04F02C0000000000E0
:10FFBE000200100000C05F08A8C05F08E8D03F0232
:10FFCE0001000A00FFFFFFFFFFFF00000102030414
:10FFDE0005060708090A0B0C0D0E0F10111213144B
:0EFFEE0015161718191A1B1C1D1E1F203E0089
:04FFFC0078563412ED
:04000005085FC018B8
:00000001FF
