:02000002B0004C
:1040000000400B00C66C0B00000006000C0005020F
:08401000040139180000000052
:0440180064670B00CE
:10401C0010F8012B11F8013B012A28BF9A42F7D066
:10402C00D01A7047034613F8012B002AFBD1181A3B
:10403C000138704709480A49884208B505D0094A31
:10404C00824202D0121A02F0EFF90748074A002107
:10405C00121A02F011FA014808BD00BFFCE503205A
:10406C00246C0B0070E6032070E60320FCE70320B1
:10407C0070B5074E074C01F007FDA41BA4080025E2
:10408C00AC4200D170BD56F8043B98470135F7E7B8
:10409C00D86B0B00006C0B0000F048B808B500F0B2
:1040AC0055F8BDE8084001F0A7BC00F0CDBA00F00F
:1040BC00CBBA00F0D1BA000008B5034A03490C2072
:1040CC0000F006FAFEE700BF5D430B0078670B00BB
:1040DC000078B0FA80F040097047012303707047F4
:1040EC00704700000A4B10B50446036000F008FE50
:1040FC00214601F052F801F0D3FD01F0C5FD204638
:10410C00044B40F8043B00F0D1FE204610BD00BF2C
:10411C00C4670B00AC670B0010B50446FFF7E2FF59
:10412C0020462421FFF7C5FF204610BD08B501F03D
:10413C00B7FD4FF4165101F0A3FD02F03FF9BDE8B5
:10414C0008404FF4165101F0FFBF000010B502F00B
:10415C0035F90D4900F025FC02F030F903681B69B4
:10416C00984750B102F02AF903685B6998470446F6
:10417C0001F096FDE1B200F005FCBDE810404FF4F3
:10418C007A7001F00DBC00BF8D670B0070B5D0E9E3
:10419C0000531426044606FB0356AE4204D02846B0
:1041AC0000F0FAFA1435F8E7206800F055FA2046CA
:1041BC0070BD8842F8B504460D46164616D9904295
:1041CC0015D2A2F11406751AA1F114072C44B742AA
:1041DC001CD02CB13146204600F047FB337C2374B5
:1041EC00304600F0D9FA143E143CF0E70ED0B5423C
:1041FC000CD02CB12946204600F037FB2B7C2374C5
:10420C00284600F0C9FA14351434F0E7F8BD2DE94E
:10421C00F0410023C0E9003383604F689F4204469D
:10422C000E4623DD4FF0140808FB07F000F00CFAE3
:10423C000546D8B1D4E9001208FB0212FFF7B9FF0A
:10424C00206800F009FA2560A760D6E9007308FB26
:10425C000378B84508D03946284600F020FB3B7C53
:10426C002B7414371435F4E7736863602046BDE88B
:10427C00F081000070B5244B244A9A6000248CB065
:10428C00C3E90044012000F03BF92146012000F075
:10429C0047F9CDE90044029401F002FD1C4C05469F
:1042AC00694603A8FFF7B3FF264603A906A8FFF744
:1042BC00AEFF184B46F8043B06A909A8FFF7A7FF69
:1042CC0009AA1E21304601F04BF809A8FFF75EFF42
:1042DC0006A8FFF75BFF104B2360256203A8FFF7CE
:1042EC0055FF0E4B236001F0DBFC4FF4165101F02F
:1042FC00C7FC00F005FD214600F008FF6846FFF7FB
:10430C0045FF0CB070BD00BF70E603200000FFFF3E
:10431C007CE60320AC670B00B0680B00C4670B0095
:10432C0008B5024B1B689B68019308BD680203002B
:10433C0008B5024B1B68DB68019308BD68020300DB
:10434C0008B5024B1B685B68019308BD180203009B
:10435C0008B5024B1B68DB68019308BD180203000B
:10436C0008B5024B1B685B69019308BD180203007A
:10437C0008B5024B1B685B6C019308BD4802030037
:10438C0008B5024B1B689B6C019308BD48020300E7
:10439C0008B5024B1B68DB6C019308BD4802030097
:1043AC0008B5024B1B685B6D019308BD4802030006
:1043BC0008B5024B1B685B69019308BD64020300DE
:1043CC0008B5024B1B689B68019308BD3C020300B7
:1043DC0008B5024B1B68DB68019308BD3C02030067
:1043EC0008B5024B1B681B69019308BD3C02030016
:1043FC0008B5024B1B685B69019308BD3C020300C6
:10440C0008B5024B1B689B69019308BD3C02030075
:10441C0008B5024B1B68DB69019308BD3C02030025
:10442C0008B5024B1B689B6A019308BD3C02030054
:10443C0008B5024B1B68DB6A019308BD3C02030004
:10444C0008B5024B1B681B6C019308BD3C020300B2
:10445C0008B5024B1B681B68019308BD4C02030096
:10446C0008B5024B1B685B68019308BD4C02030046
:10447C0008B5024B1B689B68019308BD4C020300F6
:10448C0008B5024B1B681B69019308BD4C02030065
:10449C0008B5024B1B685B69019308BD4C02030015
:1044AC0008B5024B1B689B69019308BD4C020300C5
:1044BC0008B5024B1B68DB69019308BD4C02030075
:1044CC0008B5024B1B681B6A019308BD4C02030024
:1044DC0008B5024B1B685B6B019308BD60020300BF
:1044EC0008B5024B1B68DB6E019308BD600203002C
:1044FC0008B5024B1B681B6F019308BD60020300DB
:10450C0008B5024B1B685B68019308BD20020300D1
:10451C0008B5024B1B685B69019308BD20020300C0
:10452C0008B5024B1B68DB6A019308BD200203002F
:10453C0008B5034B1B68D3F88830019308BD000005
:10454C002002030008B5034B1B68D3F89430019389
:10455C0008BD00002002030008B5024B1B685B6815
:10456C00019308BD4002030008B5024B1B689B6811
:10457C00019308BD4002030008B5024B1B68DB68C1
:10458C00019308BD4002030008B5024B1B681B6970
:10459C00019308BD4002030008B5024B1B685B6920
:1045AC00019308BD4002030008B5024B1B689B69D0
:1045BC00019308BD4002030008B5024B1B68DB6980
:1045CC00019308BD4002030008B5024B1B681B6A2F
:1045DC00019308BD4002030008B5024B1B681B6B1E
:1045EC00019308BD4002030008B5024B1B685B6BCE
:1045FC00019308BD4002030008B5024B1B681B6CFD
:10460C00019308BD4002030008B5024B1B685B6CAC
:10461C00019308BD4002030008B5024B1B685B6D9B
:10462C00019308BD4002030008B5024B1B689B6D4B
:10463C00019308BD4002030008B5024B1B68DB6BFD
:10464C00019308BD4402030008B5024B1B681B68AC
:10465C00019308BD1C02030008B5024B1B685B6884
:10466C00019308BD1C02030008B5024B1B689B6834
:10467C00019308BD1C02030008B5024B1B685B6A62
:10468C00019308BD1C02030008B5024B1B68DB6BD1
:10469C00019308BD1C02030008B5024B1B681B6C80
:1046AC00019308BD1C02030008B5024B1B685B6C30
:1046BC00019308BD1C020300002240681146FFF75D
:1046CC0083BF002240681146FFF78EBF406800226E
:1046DC00FFF782BF4068002281F00101FFF76CBF39
:1046EC00002340681A461946FFF75EBF0023406856
:1046FC001A461946FFF750BF002240681146FFF7D3
:10470C0043BF002240681146FFF72EBF40680022CD
:10471C000221FFF731BF002340681A46FFF71CBF88
:10472C00024B03225A60024A1A607047A0E603202B
:10473C00DC670B000B6803604B68436013B15A686D
:10474C0001325A60704738B5046805467CB163681D
:10475C00013B63605BB9236820469B689847A3685C
:10476C00013BA3601BB923682046DB6898472846A9
:10477C0038BD0000054B02221A60054B054A9A60B1
:10478C000020C3E90000FFF7BBBE00BFB4E6032066
:10479C00A8E603200000FFFF10B504460068FFF7F1
:1047AC005BFF204610BD10B50446006808B1FFF74A
:1047BC0053FF0023C4E90133236010BD38B5044610
:1047CC000D4600680131FFF74FFF10B1C4E9000539
:1047DC00012038BD10B50368044623B143688B42F1
:1047EC0001D3012010BD2046FFF7E8FF0028F9D0C7
:1047FC00A368002BF5D122681370F2E737B50D468C
:10480C00114601920446FFF7E5FF019A28B92046AC
:10481C00FFF7C9FF204603B030BDA26029462068CF
:10482C0001F002FE2268A3680021D154F2E738B5EA
:10483C00054600680C4670B16A688B689A4208D3CA
:10484C00096831B101F065FEA368AB600023A36079
:10485C0038BDFFF701FF23682B6063686B60A368AA
:10486C00AB600023C4E90033F1E710B50023C0E9C5
:10487C000033044683600373FFF7D9FF204610BD55
:10488C00884210B5044605D00B682BB18A681946CE
:10489C00FFF7B4FF204610BDFFF785FFFAE710B510
:1048AC0000230446C0E9003383600373FFF7E8FF7D
:1048BC00204610BD10B54368013B0446436063B904
:1048CC0003689B689847A368013BA3602BB92368D6
:1048DC002046DB68BDE81040184710BD70B5D0E924
:1048EC000053044605EB0316AE4204D02846FFF7EE
:1048FC0053FF1035F8E72068FFF7AEFE204670BD79
:10490C00024800230360FFF733BD00BFB8E6032065
:10491C0010B5044680680368DB689847E368184460
:10492C00E06010BDF8B506460D468F180024BD4258
:10493C000CD0336815F8011B9B6830469847031E52
:10494C0001DB1C44F3E7002C08BF1C462046F8BDD5
:10495C00704710B510210446FFF7ABFB204610BD85
:10496C0013B50446084659B10191FFF75BFB236868
:10497C000199DB680246204602B0BDE8104018479A
:10498C0002B010BD03689B68184738B50D21054669
:10499C00FFF7F8FF0A2104462846FFF7F3FF2044EF
:1049AC0038BD38B50546FFF7DBFF04462846FFF750
:1049BC00ECFF204438BD30B58BB00023012A8DF8B4
:1049CC00243098BF0A2209AC0D46B1FBF2F101FB71
:1049DC00125303F0FF03092B94BF30333733DBB290
:1049EC00AA4204F8013DEFD92146FFF7B9FF0BB0FD
:1049FC0030BD10B50446FFF7B3FCE06023682046D9
:104A0C005B699847002808DAFFF7AAFCE368C01A2C
:104A1C00A3689842F2D34FF0FF3010BD2DE9F0415E
:104A2C0007460C468E180D46B542A5EB040807D078
:104A3C003846FFF7DEFF031E02DB05F8013BF3E708
:104A4C004046BDE8F0817047084611B10B685B68C1
:104A5C001847704770477047704738B504460D4685
:104A6C0000682E2101F04BFD2368C31A2B6023B183
:104A7C00037803B1013023682060184638BD10B5A7
:104A8C0004210446FFF715FB204610BD10B5042188
:104A9C000446FFF70EFB204610BDFFF779BC08B5A6
:104AAC00FFF7B6FAB0FA80F0400908BD704710B5B0
:104ABC000C4601F0F5F8844210D001F07FFC8442E2
:104ACC0005D101F07BFCBDE8104001F040BB2CB1DE
:104ADC00236820465B68BDE81040184710BD13B52D
:104AEC00044608460191FFF79DFA019902462046BB
:104AFC0002B0BDE8104001F0C1BA13B50446084637
:104B0C000191FFF78FFA23680199DB680246204672
:104B1C0002B0BDE81040184707B503688DF80710C0
:104B2C00DB6801220DF10701984703B05DF804FB27
:104B3C002DE9F74FD0E900844FF0140A00930AFBDB
:104B4C0004F4184BA41017465C434546002C21DD99
:104B5C0066100AFB06F005EB00093A46B9F804B0FA
:104B6C00285801915F4528BF5A4601F0DAFC00280D
:104B7C0001994FF001030BD15F4503D1009A1370DB
:104B8C003446E3E7FCD9A61B09F11405013EF7E70F
:104B9C00F9DBF5E7A5EB08050248AD10684303B057
:104BAC00BDE8F08FCDCCCCCC7FB50369057E0191EF
:104BBC0003B3F9B1002600F10C04039603A901A874
:104BCC00FFF74BFF0146A8B10DF10B03039A8DF8CB
:104BDC000B602046FFF7ACFF9DF80B3053B12368F8
:104BEC00142404FB0034083434F9023C002BA8BF15
:104BFC00DDB2E3E7284604B070BD0EB4F0B58CB05E
:104C0C0000AF07F14405044655F8042B7A602B4697
:104C1C00202107F11000FD60FFF72EFD1F287A6898
:104C2C001AD900F1080323F007036E46ADEB030D10
:104C3C00411C2B466846FD60FFF71EFD021E04DD7D
:104C4C0023686946DB6820469847B5463037BD4631
:104C5C00BDE8F04003B070470028F7D02368024647
:104C6C00DB6807F1100120469847EFE710B5094CB7
:104C7C002378BFF35B8FDB0709D42046FFF728FAB4
:104C8C0028B12046FFF729FA034801F0BFFB03487F
:104C9C0010BD00BFC0E60320614A0B00FCE50320F9
:104CAC0010B5094C2378BFF35B8FDB0709D4204682
:104CBC00FFF70EFA28B12046FFF70FFA034801F070
:104CCC00A5FB034810BD00BFC4E60320B94A0B0086
:104CDC0000E6032038B500250446C0E90055C0E9BC
:104CEC0004558560856140F8245FFFF741FBFFF7B1
:104CFC00BDFFE061FFF7D4FF25732062204638BD6D
:104D0C0010B50A4C2378BFF35B8FDB070CD420461D
:104D1C00FFF7DEF940B10648FFF7DCFF2046FFF74E
:104D2C00DCF9044801F072FB014810BDBCE603201D
:104D3C00CCE6032085520B00024A034903480023AA
:104D4C00FFF7D6BB69500B00F54F0B00754F0B00EE
:104D5C0000231A4619461846FFF7CABB37B58D68AB
:104D6C0004466846FFF7E6FC6A462946204601F0F1
:104D7C00A5F801A8FFF7E7FC204603B030BD37B516
:104D8C00CD6804466846FFF7D5FC6A46294620469E
:104D9C0001F070F801A8FFF7D6FC204603B030BD37
:104DAC0037B50D6904466846FFF7C4FC6A462946C8
:104DBC00204601F008F801A8FFF7C5FC204603B017
:104DCC0030BD000070B58AB00D46014604A8FFF74F
:104DDC00C5FF144E04A801F089F8E8B104A968468F
:104DEC00FFF7CDFF02983146FFF759FE044610B18C
:104DFC002C1E18BF012401A8FFF7A5FC002CE9D03C
:104E0C0004A96846FFF7CCFF684601F012F8286049
:104E1C0001A8FFF798FCDDE705A8FFF794FC0AB0A2
:104E2C0070BD00BF30680B0037B50C4620461349E7
:104E3C001546FFF7EDF850B900F032FF4FF416515C
:104E4C0000F01EFF03B0BDE8304000F029BF0C4954
:104E5C002046FFF7DDF878B94FF4165301A9284620
:104E6C000193FFF7AFFF01F0A9FA019901F06CF97A
:104E7C0001F0A4FA03B030BD0020FBE735680B004D
:104E8C003C680B0070B5D0E900531426044606FBB1
:104E9C000356AE4205D005F10800FFF7F3FF1435B9
:104EAC00F7E72068FFF7D8FB204670BD10B5044625
:104EBC000C30FFF7E7FF2046FFF710FD204610BD32
:104ECC0010B5044B044640F8043BFFF7EFFF2046B7
:104EDC0010BD00BFAC670B0010B50446FFF7F0FF28
:104EEC0020462421FFF7E5F8204610BD10B5034BF2
:104EFC0003600446FFF7E4FF204610BDC8680B00B2
:104F0C0010B50446FFF7F2FF20462421FFF7D1F835
:104F1C00204610BD0A6802604A6842600022C0E95F
:104F2C00022210B502618C688460CC68C4600C6984
:104F3C008A60CA6004610A6110BD0022C0E90022C7
:104F4C0010B582600C6804604C6844608C680A6020
:104F5C004A6084608A6010BD10B503680446186806
:104F6C00FFF71EFA204610BD2DE9F04F87B08046A2
:104F7C0003931C4B5B68C3F30803894616466BB955
:104F8C00FFF7BEFE044600F12403406A0593FFF7C9
:104F9C0084FD237B2BB105A8FFF7DEFF07B0BDE82E
:104FAC00F08F01232373D4E900535FFA89F905EBE1
:104FBC00830AAA4512D055F8047B3146381DFFF7F9
:104FCC00F3FD8145F5D33B68039A0092D3F808B002
:104FDC004A46334641463846D847EAE7002323730E
:104FEC00D9E700BF00ED00E02DE9F74F9B461A4BC7
:104FFC005B68C3F308038046894616466BB9FFF716
:10500C007FFE044600F12403406A0193FFF745FD3F
:10501C00237B2BB101A8FFF79FFF03B0BDE8F08FF6
:10502C0001232373D4E90053F6B205EB830A5545EB
:10503C000ED055F8047B5946381DFFF7B5FD864256
:10504C00F5D33B684A46DB68414638469847EEE75D
:10505C0000232373DEE700BF00ED00E02DE9F341F0
:10506C00164B5B68C3F3080305460F461BBBFFF7E3
:10507C0047FE00F124030446406A0193FFF70DFD3F
:10508C00D4E90063462406EB8308B04509D101A896
:10509C00FFF762FFA542B4BF0020012002B0BDE8BB
:1050AC00F08156F8040B39460430FFF77DFD84423D
:1050BC00A8BF0446E9E70020F0E700BF00ED00E0E0
:1050CC00F8B5D0E901539D4204460E460DDB6F1C2A
:1050DC00002F006804DDB900FFF7C6FA18B9F8BD57
:1050EC00FFF7BAFA00202060A7602768626807EB18
:1050FC0085019200A2EB8502081D01F0A3F947F887
:10510C0025606368013363600120E8E737B500F17F
:10511C0024030446406A01930D46FFF7BEFCD4E914
:10512C00003203EB8202934219460BD00968A94264
:10513C0003F10403F7D101A8FFF70EFF0025284661
:10514C0003B030BD29462046FFF7BAFF05460028BC
:10515C00F1D06368012B01D1FFF7EEFD01A8FFF739
:10516C00FBFEECE770B50446D0E900020B4600EB01
:10517C00820282420FD001461D6851F8046BAE4288
:10518C0007D1521A01F05EF96368013B636001209C
:10519C0070BD0846EDE70020FAE71FB500F12403C7
:1051AC000446406A01910393FFF777FC01A920465E
:1051BC00FFF7D8FF18B163680BB9FFF7C9FD03A857
:1051CC00FFF7CAFE04B010BD70B5D0E90456182321
:1051DC00044603FB0656AE4215D005F110012046DD
:1051EC00FFF7C0FF63680BB9FFF7B2FDE0692969EF
:1051FC000368DB689847696919B1206A0368DB6842
:10520C0098471835E7E7D4E90453182606FB0356EC
:10521C00AE4204D02846FFF7BFFA1835F8E7002352
:10522C00636170BD73B50446FFF792FD04F124036E
:10523C00606A0193FFF731FC2046FFF7C5FF01A818
:10524C00FFF78AFE606A08B1FFF79AF8D4E90453B5
:10525C00182606FB0356AE4204D02846FFF79CFAEC
:10526C001835F8E72069FFF7F7F92068FFF7F4F92C
:10527C00204602B070BD00000148FFF7D3BF00BF4D
:10528C00CCE603208842F8B504460D46164615D9DF
:10529C00904214D2A2F11406751AA1F114072C44F1
:1052AC00B7421AD01CB131462046FFF733FE06F147
:1052BC000800FFF7E7FD143E143CF1E70DD0B542B2
:1052CC000BD01CB129462046FFF724FE05F108003F
:1052DC00FFF7D8FD14351434F1E7F8BD8842F8B562
:1052EC0004460D46164614D9904213D2A2F110066C
:1052FC00751AA1F110072C44B74218D01CB13146D5
:10530C002046FFF7B2FA3046FFF746FA103E103C43
:10531C00F2E70CD0B5420AD01CB129462046FFF763
:10532C00A4FA2846FFF738FA10351034F2E7F8BD26
:10533C0070B50E1E054611DD3001FFF785F90446E8
:10534C0058B1D5E9001201EB0212FFF7C7FF28682C
:10535C00FFF782F92C60AE60012070BD0024F6E7E7
:10536C002DE9F04F904695B000230391D8F8041026
:10537C000A9346229942C0E90033C0E90233C0E9DE
:10538C000433CDE908330446027623DCD8E9005710
:10539C00142303FB0757AF423BD029460BA8FFF75A
:1053AC0064FA0BA90FA8099EFFF75FFADDE9091350
:1053BC0099421BDA089B099A03EB061603EB0212BF
:1053CC00314606F11000FFF789FFEEB9099B013356
:1053DC00099311E008A8FFF7ABFF0028D6D108A865
:1053EC00FFF77CFA204615B0BDE8F08F013108A814
:1053FC00FFF79EFF0028DDD10FA8FFF7CDF90BA812
:10540C00FFF7CAF91435C6E70FA93046FFF72DFA96
:10541C00DCE70026CDE90B660D964FF01409DDE9AB
:10542C0008239E427CDA3301D35806930BB901361C
:10543C00F5E70023079309FB06F302930BAD07A9CD
:10544C0006A8FFF70AFB82460028F0D04FF00003B5
:10545C008DF817300146079A0DF117032846FFF710
:10546C0067FB9DF817700190002F4AD1BDF81C30D6
:10547C00ADF84030CDE911774FF6FF73CDF83CA075
:10548C00ADF842301397D5E90132934217DB03F1A3
:10549C00010ABAF1000F30DD09FB0AF0FFF7D4F86E
:1054AC00834660B3D5E9001209FB0212FFF7EAFE4E
:1054BC002868FFF7D1F8C5F800B0C5F808A02B682C
:1054CC00019A09FB023A6A68514609FB02320AF159
:1054DC001400FFF7D7FEBAF1000F03D00FA9504606
:1054EC00FFF718FD6B6801336B6011A8FFF7CAFC5E
:1054FC003FB10BA8FFF7C6FC71E7BB46D8E7012705
:10550C00F3E7019B2D6809FB0355069B1B782BB910
:10551C00D8F80030029A13441B7CEB8008358EE7D8
:10552C002168226062686360A36809920A9A0A93F0
:10553C00E368A2600B9A0B932369E2600C9A0C93BC
:10554C00636922610D9A0D93039B08916261237626
:10555C00CFE70000F0B5044687B00D462646194645
:10556C0068461746FEF753FE0B4B46F8043B69465C
:10557C0003A8FEF74CFE03AA39463046FFF7F0FEAF
:10558C0003A8FEF703FE6846FEF700FE034B2360FC
:10559C002046256207B0F0BDAC670B00B0680B006D
:1055AC00F0B50F4685B01D490A9C384616461D4677
:1055BC00FEF72EFDC0B9A4B1294601A8FFF7BDFC2A
:1055CC001749242000F01EFF054630B101AB3246CE
:1055DC002146FFF7BFFF134B2B6001A8FEF7D6FD4A
:1055EC002C46204605B0F0BD0F493846FEF710FD9D
:1055FC0090B9002CF5D0294601A8FFF79EFC08496C
:10560C00242000F0FFFE05460028E6D001AB324610
:10561C002146FFF79FFFE0E70024E2E744680B0018
:10562C00406A0B00C8680B0048680B00014B024A2B
:10563C001A607047C8E6032059680B002DE9F04743
:10564C00089DD0F8209004460E461746984600F068
:10565C0027FB81454CD02B79190704D56A6954492D
:10566C002046FFF7CAFAB8F1000F0DD05B21204697
:10567C00FFF752FA41462046FFF73FFA23684D499F
:10568C00DB680222204698472B79DA0723D5D5F818
:10569C0008802F21404600F058FF08B100F10108A6
:1056AC0041462046FFF729FA2B799B0708D53A216A
:1056BC002046FFF731FAEA683F492046FFF79DFA8A
:1056CC002A79236812F0040FDB6814BF3B493C496C
:1056DC000222204698472B7958071DD529690B467D
:1056EC001A4613F8010B60B1202808D11946F7E7C8
:1056FC00344800F0B2FD0028ADD0BDE8F087282872
:10570C00EED12368521ADB682046984723682E494D
:10571C00DB6804222046984700213846FEF7E0FE5D
:10572C0001462046FFF7E9F923682549DB68022288
:10573C00204698471EB131462046FFF7DEF92B79FB
:10574C0013F0300F2CD023682049DB68022220464E
:10575C0098472B79D9060AD523681D49DB6807229F
:10576C0020469847AA691B492046FFF746FA2B7931
:10577C009A0611D5DB0605D523681049DB68022291
:10578C002046984723681449DB6820460A2298472C
:10579C00E9692046FFF7B1F95D212046FFF7BCF916
:1057AC0023680E49DB6820460222BDE8F047184703
:1057BC005D680B0064680B0067680B006A680B007F
:1057CC006F680B0044E703206D680B0072680B00D8
:1057DC0075680B007D680B0080680B008B680B00F4
:1057EC002DE9F0410446076A0D46164600F058FABA
:1057FC00874207D0206A036832462946DB68BDE839
:10580C00F0411847034800F028FD0028F2D0BDE80D
:10581C00F08100BF44E703202DE9F04385B0D0F8B8
:10582C0020900C9C05460F4690461E4600F038FA18
:10583C00814505D1494800F010FD002840F08A80D0
:10584C002B6A474A00924FF000096846CDE90239AD
:10585C008DF8049000F073FB49464046FEF740FE7D
:10586C00404980460122684600F0F8FB4146FFF7AC
:10587C0036F93FB13C490122684600F0EFFB39464E
:10588C00FFF72DF93EB139490122684600F0E6FBDD
:10589C003146FFF724F92379DF070ED5A6682F21AF
:1058AC00304600F052FE00B1461C314901226846D8
:1058BC0000F0D4FB3146FFF712F923799E0707D588
:1058CC002C490222684600F0C9FBE16800F044FB59
:1058DC002379580714D5266933461F4613F8012B34
:1058EC002AB1202A01D11E46F7E7282AF5D12249F0
:1058FC000222684600F0B2FBBA1B314600F0BEFB38
:10590C002379190707D51D490122684600F0A6FB2B
:10591C00616900F033FB2379DA0607D518490422B4
:10592C00684600F09BFBA16900F016FB23799B06EF
:10593C0007D514490622684600F090FBE169FFF791
:10594C00CEF8684600F0E5FA286A0F49036802228F
:10595C00DB68984705B0BDE8F08300BF44E703203F
:10596C0020680B003A680B008E680B00D36A0B00A2
:10597C0090680B0092680B0095680B0098680B0000
:10598C009A680B009F680B008B680B00024B1A681F
:10599C00024B1A60704700BF04E60320F4E60320B4
:1059AC000021FEF7B5BD0000014B00229A60704744
:1059BC00F8E60320014B1860704700BF08E603208F
:1059CC0008B50B4B43B100F06BF903681B699847A2
:1059DC00002801DDAFF30080064B43B100F0EEFC74
:1059EC0003681B699847002801DDAFF3008008BDF0
:1059FC00000000000000000008B5FFF7E1FFFEF713
:105A0C00AFFC014B186008BD64E703200548064A4B
:105A1C00064908B5121A00F007FD054B054A1A6035
:105A2C0008BD00BF00F4032004F40320986C0B00A5
:105A3C0000F403201E1C279A07B5002300931A4676
:105A4C006FF07701FEF77EFD03B05DF804FB0000FC
:105A5C0007B543880A2B08D0502B0BD1094B1B6878
:105A6C004BB103B05DF804EB1847FFF7E5FF03B04B
:105A7C005DF804FB002300931A466FF07701FEF7E4
:105A8C0061FDF4E70CE7032010B512480021FEF786
:105A9C000BFE114B1A68114B9A42114B0CBF012291
:105AAC0000221A7001D0FFF7B1FFFEF749FC044643
:105ABC0000F0EAFC0B4B13B12046AFF30080002141
:105ACC000848FEF7B9FDBDE8104007480021FEF775
:105ADC002FBD00BFC1590B0000F403201E1C279AD8
:105AEC0008E70320000000005D5A0B00704710B55A
:105AFC0018210446FEF7DDFA204610BDF0B5037DF3
:105B0C00062B8DB00E4600F104074FF0000412D0A6
:105B1C0000F1080515F8011D0A223046FEF74BFF6F
:105B2C00AF42044419D0002CF4D02E213046FEF79D
:105B3C0029FF0444EEE72F236A4639460A208DF8E4
:105B4C000040FEF735FC6846FEF76CFA33680246F7
:105B5C00DB68694630469847044620460DB0F0BDD8
:105B6C0010B5054B0446112240F8043B002100F00F
:105B7C0083FC204610BD00BF2C690B000346074A6E
:105B8C0010B543F8042B01F1100251F8044B43F803
:105B9C00044B9142F9D10A781A7010BD2C690B0094
:105BAC0010B59DF8084044EA032343EA024242EA56
:105BBC00016104234160037510BD000007B5064B5D
:105BCC000360CB7800938B784A780978FFF7E8FF6D
:105BDC0003B05DF804FB00BF2C690B0041747047E7
:105BEC007047704708B50021007CFEF759FC40EA6D
:105BFC00E07008BD08B50121007CFEF751FC40EABD
:105C0C00E07008BD08B5007CFEF742FC20EAE070AD
:105C1C0008BD08B5007CFEF733FC20EAE07008BD37
:105C2C0013B50446007C0191FEF732FC0028019963
:105C3C0001DC607C20B1207CFEF73AFC20EAE070AD
:105C4C0002B010BD007CFEF73BBC10B5142104461D
:105C5C00FEF72FFA204610BD10B54FF47A730446A8
:105C6C0008460021C4E90113044B2360012320746E
:105C7C0063741146FEF7ECFB204610BD40690B0027
:105C8C00007C0022FEF7ECBB007CFEF7F1BB10B5EC
:105C9C0014220446002100F0EFFB204610BD00004A
:105CAC0010B50F4C88B003A8FFF7F1FF2178BFF3B4
:105CBC005B8F11F001010FD120460191FEF708FA1C
:105CCC00019948B103AA0748FFF7C6FF2046FEF723
:105CDC0004FA054800F09AFB024808B010BD00BF5A
:105CEC0010E7032014E70320ED5B0B0000F1100319
:105CFC00012213F8101C0129184608D153F8041C72
:105D0C0002EB4102013A03F11003F2D17047022970
:105D1C0004BF53F8041C5218F4E70EB4F0B588B065
:105D2C0000AF07F13405102155F8042B7A600446B6
:105D3C002B467818FD60FEF79FFC0F287A681AD95D
:105D4C0000F1080323F007036E46ADEB030D411C75
:105D5C002B466846FD60FEF78FFC021E04DD2368AF
:105D6C0069469B6820469847B5462037BD46BDE836
:105D7C00F04003B070470028F7D0236802469B68B8
:105D8C0007F1100120469847EFE738B50B68036020
:105D9C004D6843689D42044608D015B16B680133C9
:105DAC006B60606808B1FEF785FD656038BD07B5AE
:105DBC0003688DF807109B6801220DF107019847C5
:105DCC0003B05DF804FB0B461146002210B5C0E988
:105DDC000022044683600BB9204610BDFFF7D5FFA7
:105DEC00FAE78368EBB11A78032A1AD8DFE802F0D5
:105DFC000417021B0520704702685B685268D05C70
:105E0C002D2812D0A0F13003092B0ED974280ED0F6
:105E1C0066280CD0A0F16E035842584170470620FA
:105E2C007047002070470420704703207047022001
:105E3C00704710B50446FFF7D4FF02280ED0C31EDE
:105E4C00DBB2012B14D82268A36850685B68BDE8EC
:105E5C0010400A220021184400F00EBC2268A368EE
:105E6C0052685B68D05CA0F174035842584110BD75
:105E7C000020FCE738B50023C0E9003304460E4887
:105E8C00C4E90203A9B10B78032B06D08BB91368B4
:105E9C0058684B68C35C6E2B07D013684D68586804
:105EAC008B6828445B1BA060E36011462046FFF71B
:105EBC006CFF204638BD00BF8D680B0038B500253F
:105ECC000B46C0E90055C0E90255C0E9045504462B
:105EDC0011464BB11A78012A06D103F11002DB6886
:105EEC0082604361FFF751FF204638BD10B543690E
:105EFC00044663B18068E060013B1030A060206113
:105F0C00636113B1FFF7F2FEA060012000E01846B8
:105F1C0010BD10B57D210446FFF749FF0123237105
:105F2C00204610BD08B50379012B02D0022B04D0FA
:105F3C0008BD2C21FFF73BFFFAE73A21FAE710B531
:105F4C000446FFF7EFFF20467B21FFF730FF0023CD
:105F5C002371204610BD000013B504460191FFF7D4
:105F6C00E1FF2368019ADB68034920469847012327
:105F7C002046237102B010BD67680B0013B50446B0
:105F8C000191FFF7CFFF2368019ADB680349204694
:105F9C00984701232046237102B010BD6C690B0099
:105FAC002DE9F0470D46222190460446FFF7FFFEEF
:105FBC00DFF8A490A8442F464745BA463DD017F8C1
:105FCC00016B222E06D05C2E04D0304600F024FA51
:105FDC000028F1D12368AAEB05029B6829462046CC
:105FEC0098475C212046FFF7E2FE0D2E0AD8072EBB
:105FFC001CD9A6F10803052B18D8DFE803F00D0F08
:10600C0011171315222E01D05C2E0FD131462046CC
:10601C00FFF7CDFE3D46CFE76221F8E77421F6E7A6
:10602C006E21F4E76621F2E77221F0E7236832462D
:10603C00DB68494620469847ECE7BD4205D023680B
:10604C007A1B9B6829462046984722212046FFF759
:10605C00AEFEBDE8F08700BF6F690B0013B50446B8
:10606C00CDE90021FFF75EFF2046DDE90021FFF7B7
:10607C0097FF02232046237102B010BD13B50446CE
:10608C00CDE90021FFF74EFF2046DDE90021FFF7A7
:10609C0087FF01232046237102B010BD7047417465
:1060AC00704708B5007CFEF7BBF920EAE07008BD2C
:1060BC0008B5007CFEF794F920EAE07008BD08B53D
:1060CC00007CFEF79DF940EAE07008BD08B5007C45
:1060DC00FEF78EF940EAE07008BD007CFEF798B937
:1060EC0037B5457C04462DB1207C03B0BDE830406B
:1060FC00FEF76EB9007C0191FEF792F90028019928
:10610C00F2DC284603B030BD10B514210446FDF76F
:10611C00D0FF204610BD000010B54FF47A73044632
:10612C00084611460022C4E90123044B23600123D5
:10613C0020746374FEF784F9204610BD80690B004F
:10614C00007C0023FEF774B90022FFF7F9BF007C36
:10615C00FEF736B9054BFF210022C3E900120120DE
:10616C006421C3E902011A61704700BF28E70320CC
:10617C00002240681146FEF707BA0022406811461B
:10618C00FEF722BA002240681146FEF72DBA40688D
:10619C000022FEF721BA4068002281F00101FEF7CF
:1061AC000BBA002340681A461946FEF7FDB90023C6
:1061BC0040681A461946FEF7EFB9002240681146AE
:1061CC00FEF7D2B9406800220221FEF7D5B90023B0
:1061DC0040681A46FEF7C0B9024B04225A60024AC4
:1061EC001A6070473CE70320B4690B000023406839
:1061FC001A46FEF7B1B9406800220221FEF7BCB97D
:10620C00002240681146FEF7AFB9002240681146E3
:10621C00FEF7BAB9002340681A461946FEF7BCB916
:10622C00002340681A461946FEF7BEB940680021A3
:10623C00FEF7E2B940680021FEF7E6B9406800229B
:10624C0081F00101FEF7B8B940680022FEF7C4B92D
:10625C00002240681146FEF7C7B90022406811467B
:10626C00FEF7B2B940680021FEF7DEB92DE9F04324
:10627C0095B014460D460746FFF772FC00211C2210
:10628C000DA8009100F0F8F840230C9320466B46C3
:10629C000CAA0021FEF74CF8044600284BD102460C
:1062AC0001216868FEF770F9022180462246686871
:1062BC00FEF76AF9009E81462146002E3BD000294C
:1062CC0039D17368022B03D00A2B11D0F669F4E78D
:1062DC00B8F1000FFAD0716906A8043107ADFFF7C9
:1062EC006DFC0FCD3C1D0FC42B6823704146EDE7B0
:1062FC00B9F1000FEAD07469102201A800F0BCF8C3
:10630C0006238DF8143001AD04F108031834186815
:10631C0059682A4603C20833A3421546F7D101A98E
:10632C0006A807ADFFF72AFC0FCD3C1D0FC42B6848
:10633C0023704946CAE70098FDF7F2FF384615B0BE
:10634C00BDE8F083033802289ABF024B53F82000B3
:10635C0001487047F0690B0044E7032008B50022A0
:10636C004068FEF759F9BDE80840FFF7EBBF0000A5
:10637C00024B034A1A6000225A60704744E703201C
:10638C00046A0B007047000038B5044614252A46F1
:10639C00002100F071F82580402507492581284609
:1063AC00258200F031F804496060284600F02CF892
:1063BC00E060204638BD00BF406A0B0030B50E4D82
:1063CC002978BFF35B8F11F0010487B011D12846F7
:1063DC00FDF77EFE68B101A8FFF7D6FF01AA2146A2
:1063EC000648FFF799FE2846FDF777FE044800F0B3
:1063FC000DF8024807B030BD4CE7032050E70320EE
:10640C0091630B00FDF751BEFDF751BE0023014611
:10641C001A46184600F03AB9024B1844407800F07E
:10642C0097007047D56A0B000A44914200F1FF3384
:10643C0000D1704710B511F8014B03F8014F914290
:10644C00F9D110BD884210B501EB020402D9844287
:10645C00234607D8431EA14208D011F8012B03F89C
:10646C00012FF8E7024401468A4200D110BD13F80F
:10647C00014D02F8014DF7E702440346934200D167
:10648C00704703F8011BF9E738B5104B1D68AB6B6F
:10649C000446B3B91820FEF7D7F80246A86320B912
:1064AC000B4B0C484221FEF7F7F80B490B4BC0E99C
:1064BC0000130B4B83600B23838100210120C2E965
:1064CC000401AB6B00221C615A6138BD08E6032045
:1064DC00416A0B00586A0B000E33CDAB34126DE6DB
:1064EC00ECDE0500C9B2034610F8012B1AB18A4242
:1064FC00F9D118467047002918BF0023F9E710B5E9
:10650C000446FFF7EFFF18B92046FDF78BFD20443A
:10651C0010BD034611F8012B03F8012B002AF9D109
:10652C00704710B57AB103460139841813F8010B82
:10653C0011F8012F904201D1A34201D1801A10BD54
:10654C000028F3D1FAE71046F9E738B503460C46B4
:10655C0069B9BDE83840FFF7C5BF431C0546214665
:10656C001846FFF7BFFF0028F7D1284638BD002595
:10657C00F5E70000012B2DE9F04701D0242B06D9BB
:10658C00FEF782F8162303600020BDE8F087DFF8E1
:10659C00E4C00D462E4615F8014B14F80C7017F09C
:1065AC000807F7D12D2C32D12C780127B51C002BE4
:1065BC005BD0102B09D1302C07D12C7804F0DF04E0
:1065CC00582C4DD16C781023023507F1004808F196
:1065DC00FF384FF0000CB8FBF3F9664603FB198A41
:1065EC00A4F1300EBEF1090F16D87446A34224DD77
:1065FC00BCF1000F1EDBB1451CD301D1A24519DB48
:10660C0006FB03464FF0010C15F8014BE8E72B2C69
:10661C0004BF2C78B51CCAE7A4F1410EBEF1190FCA
:10662C0001D8373CE2E7A4F1610EBEF1190F04D892
:10663C00573CDBE74FF0FF3CE6E7BCF1000F05DA17
:10664C0022230360464642B930469EE707B17642A4
:10665C00002AF9D0BCF1000F00D0691E1160F3E7DD
:10666C003024002BB1D10823AFE7302CA5D00A235E
:10667C00ABE700BFD66A0B0013460A460146024838
:10668C000068FFF777BF00BF08E603202DE9F84349
:10669C00DFF8B8800646D8F800001F460D46914634
:1066AC0000F056F8254B1C6834B9254C1C60254B62
:1066BC0013B11B68C4F8883063681F2B07DDD8F84A
:1066CC00000000F047F84FF0FF30BDE8F8834EB300
:1066DC00D4F8880088B91C4B23B9D8F8000000F016
:1066EC0038F8F0E74FF48470FDF7AEFF0028F4D0D3
:1066FC000023C0E94033C4F88800636840F8239055
:10670C0001229A4000EB8301D0F800311343C0F80A
:10671C000031022EC1F8807002BFD0F8043113434F
:10672C00C0F804316368D8F800005A1C0233626068
:10673C0044F8235000F00EF80020C6E7F4E70320DD
:10674C0068E703200000000055460B006CE60320B0
:10675C00704770477047000041400B007D400B00B4
:10676C00A5400B00A9400B000000000043616C6CBD
:10677C00206F6E2070757265207669727475616C0D
:10678C000048656C6C6F2066726F6D2050686F747A
:10679C006F6E20503221000000000000000000004D
:1067AC000000000000000000C5400B00ED400B0095
:1067BC000000000000000000F1400B0025410B0020
:1067CC0049560B00ED570B000000000000000000C4
:1067DC0023470B0019470B000F470B0005470B0015
:1067EC00F9460B00ED460B0039620B0041620B00C1
:1067FC00E1460B00D9460B00CF460B00C5460B00FB
:10680C0069630B0071620B0079620B0000000000E1
:10681C00000000005D490B005F490B001D490B0097
:10682C00275D0B00626175640053657269616C00D1
:10683C0053657269616C31004A534F4E53747265E3
:10684C00616D4C6F6748616E646C6572006170704D
:10685C0000253031307520005D20002564002C208F
:10686C000028293A2000205B00636F6465203D20DE
:10687C000025690064657461696C73203D20000D0E
:10688C000A006D0066006C6E00666E007400636F2B
:10689C0064650064657461696C00000000000000B0
:1068AC0000000000CD4E0B00E54E0B0049560B00CE
:1068BC00ED570B000000000000000000F94E0B002B
:1068CC000D4F0B0025580B00534A0B000000000025
:1068DC0000000000654A0B008B4A0B00AD550B0005
:1068EC00554A0B000000000000000000634A0B003A
:1068FC00994A0B00354E0B00BB4A0B0025592D2530
:10690C006D2D25645425483A254D3A2553257A009A
:10691C0061736374696D6500000000000000000085
:10692C00095B0B00F95A0B00FB5A0B00000000002E
:10693C0000000000EF5B0B00575C0B002D5C0B00A4
:10694C0031490B001F5C0B00F15B0B00015C0B0071
:10695C00515C0B00294A0B00115C0B00E95B0B002E
:10696C00257500752530347800000000000000000B
:10697C0000000000A9600B0015610B00ED600B001E
:10698C0031490B00BD600B00D9600B00CB600B00D4
:10699C00E7600B00294A0B00AB600B00AF600B00EB
:1069AC000000000000000000DB610B00D1610B0057
:1069BC00C7610B007D610B00BB610B00AF610B006D
:1069CC0039620B0041620B00A3610B009B610B0051
:1069DC0091610B0087610B0069630B0071620B0006
:1069EC0079620B00A0E603203CE7032044E7032078
:1069FC000000000000000000F9610B0003620B00B6
:106A0C000D620B0017620B0021620B002D620B0054
:106A1C0039620B0041620B0049620B0055620B009E
:106A2C005D620B0067620B0069630B0071620B0007
:106A3C0079620B00005245454E54206D616C6C6FB1
:106A4C006320737563636565646564002F6D6E7494
:106A5C002F776F726B73706163652F776F726B73C7
:106A6C00706163652F4743432D31302D706970651C
:106A7C006C696E652F6A656E6B696E732D47434347
:106A8C002D31302D706970656C696E652D34385FF1
:106A9C0032303230313132345F3136303631383099
:106AAC003634312F7372632F6E65776C69622F6E7B
:106ABC0065776C69622F6C6962632F7374646C699F
:106ACC00622F72616E642E63000020202020202033
:106ADC002020202828282828202020202020202082
:106AEC002020202020202020202088101010101082
:106AFC0010101010101010101010040404040404D2
:106B0C0004040404101010101010104141414141B4
:106B1C004101010101010101010101010101010119
:106B2C0001010101011010101010104242424242AA
:106B3C0042020202020202020202020202020202E9
:106B4C0002020202021010101020000000000000CF
:106B5C000000000000000000000000000000000029
:106B6C000000000000000000000000000000000019
:106B7C000000000000000000000000000000000009
:106B8C0000000000000000000000000000000000F9
:106B9C0000000000000000000000000000000000E9
:106BAC0000000000000000000000000000000000D9
:106BBC0000000000000000000000000000000000C9
:106BCC0000000000000000000000000081420B00EB
:106BDC002D470B0081470B000D490B0039560B005C
:106BEC0099590B00B5590B0061610B00E5610B0065
:046BFC007D630B00AA
:106C0000040000001400000003000000474E55007F
:106C10004E7FB3D91C02DE7FF85D1BDAB4A9B01039
:046C200096CC1FB43B
:106C2400E0680B00F8680B001C690B000CE60320FD
:106C34000000000000000000000000000000000050
:106C44000000000000000000000000000000000040
:106C54000000000000000000000000000000000030
:106C64000000000000000000000000000000000020
:106C74000000000000000000000000000000000010
:106C84000000000000000000000000000000000000
:046C9400F8E70320FA
:046C980000000000F8
:106CA20000000102030405060708090A0B0C0D0E79
:106CB2000F101112131415161718191A1B1C1D1E6A
:046CC2001F20280067
:046CC60078563412B6
:04000003B000401CED
:00000001FF
